                                                                                                            PAGE      1
VERSION 5.5                                     OS/360 PL/I COMPILER (F)                                    DATE 23.096


PL/I F COMPILER OPTIONS SPECIFIED ARE AS FOLLOWS--

     MACRO


THE COMPLETE LIST OF OPTIONS USED DURING THIS COMPILATION IS--   EBCDIC
                                                                 CHAR60
                                                                 MACRO
                                                                 SOURCE2
                                                               NOMACDCK
                                                                 COMP
                                                                 SOURCE
                                                               NOATR
                                                               NOXREF
                                                               NOEXTREF
                                                               NOLIST
                                                                 LOAD
                                                               NODECK
                                                                 FLAGW
                                                               NOSTMT
                                                                 SIZE=1028712
                                                                 LINECNT=050
                                                                 OPT=01
                                                                 SORMGIN=(002,072)
                                                               NOEXTDIC
                                                               NONEST
                                                                 OPLIST
                                                                 SYNCHKT


*OPTIONS IN EFFECT*     EBCDIC,CHAR60,MACRO,SOURCE2,NOMACDCK,COMP,SOURCE,NOATR,NOXREF,NOEXTREF,NOLIST,LOAD,
*OPTIONS IN EFFECT*     NODECK,FLAGW,NOSTMT,SIZE=1028712,LINECNT=050,OPT=01,SORMGIN=(002,072),NOEXTDIC,
*OPTIONS IN EFFECT*     NONEST,OPLIST,SYNCHKT
           /************************ PDSUNLDP - PL/1 F VERSION *****************                            PAGE      2


   COMPILE-TIME MACRO PROCESSOR
   MACRO SOURCE2 LISTING

     1    /************************ PDSUNLDP - PL/1 F VERSION *****************
     2          PROGRAM-ID. PDSUNLDP.
     3          AUTHOR. ED LISS.
     4          DATE-WRITTEN. MARCH, 2010.
     5          DATE-COMPILED.
     6          REMARKS. THIS PROGRAM READS A PDS AND WRITES EACH MEMBER WITH
     7               AN ./ ADD SUITABLE FOR RELOADING USING IEBUPDTX OR
     8               IEBUPDTE.  THE './ ADD NAME=XXXXXXXX' IS GENERATED FOR
     9               EACH MEMBER.  IF A EXEC_CARD PARM IS PASSED, THE PARM
    10               IS APPENDED I.E.  './ ADD NAME=XXXXXXXX,PARM'.  USING
    11               THE PARM ENABLES UTILITY CONTROL STATEMENTS FOR
    12               IEBUPDTE OR IEBUPDTX TO BE GENERATED.
    13
    14               VERSION     DATE     COMMENTS
    15               -------   ---------  ---------------------------------
    16                1.0.0      03/2010  ORIGINAL VERSION
    17                1.1.0    06/17/2010 CHANGED SO ONLY NAME PARM
    18                                    IS GENERATED.  IF AN EXEC PARM
    19                                    IS PASSED, IT WILL BE ADDED TO
    20                                    THE ./ ADD NAME=,PARM
    21                1.2.0    03/19/2023 CODE CLEANUP AND ADDED ISPF/RPF
    22                                    STATS TO REPORT
    23
    24    ********************************************************************/
    25
    26    PDSUNLD:PROCEDURE(EXEC_PARM) OPTIONS(MAIN);
    27
    28        DECLARE EXEC_PARM CHAR(100) VARYING;
    29        DECLARE CARD_FILE STREAM OUTPUT FILE;
    30        DECLARE
    31           1  WS_MEMBER_COUNT       FIXED BINARY(31) ALIGNED INITIAL(0);
    32
    33    /*#INCLUDE GETPDSPA.PLI*/
    34      %INCLUDE GETPDSPA;
    35   1
    36    /*#INCLUDE DATECNVP.PLI*/
    37      %INCLUDE DATECNVP;
    38
    39        DECLARE NAME_WORK            CHAR(8),
    40                1 NAME_WORK_CHARS DEFINED NAME_WORK,
    41                  2 NAME_WORK_CHAR(8) CHAR(1);
    42        DECLARE NAME_STR             CHAR(8) VARYING;
    43        DECLARE CHAR_INDEX           FIXED BINARY ALIGNED;
    44        DECLARE (PAGE_NUM,
           /************************ PDSUNLDP - PL/1 F VERSION *****************                            PAGE      3


   MACRO SOURCE2 LISTING

    45                 REC_COUNT)          FIXED BINARY ALIGNED
    46                                     INIT(0);
    47   1    ON ENDPAGE(SYSPRINT)
    48        BEGIN;
    49           PAGE_NUM = PAGE_NUM + 1;
    50           PUT PAGE EDIT('PDSUNLDP V1.2.0','PAGE ',PAGE_NUM)
    51                        (A,COL(110),A,P'ZZ9');
    52           IF PAGE_NUM = 1 &
    53              LENGTH(EXEC_PARM)>0 THEN
    54                 PUT SKIP EDIT(' WITH PARM=',EXEC_PARM) (A,A);
    55           PUT SKIP EDIT('MEMBER    USERID  CREATED    UPDATED      TIME',
    56                         '   COMMENTS') (A,A);
    57           PUT SKIP;
    58        END;
    59        SIGNAL ENDPAGE(SYSPRINT);
    60        OPEN FILE(CARD_FILE) OUTPUT TITLE('CARDOUT');
    61        CALL P100_OPEN_PDS;
    62        CALL P600_CLOSE_PDS;
    63
    64        PUT SKIP EDIT('MEMBER PROCESSED=',WS_MEMBER_COUNT)(A,F(10));
    65        CLOSE FILE(CARD_FILE);
    66        PUT SKIP(2) EDIT('PDSUNLDP V1.2.0 ENDED') (A);
    67
    68   -P100_OPEN_PDS:PROC;
    69        PDSGET_REQUEST = PDSGET_REQUEST_OPEN;
    70        PDSGET_MEMBER  = 'PDSIN   ';
    71        CALL P900_CALL_GETPDSP;
    72        IF PDSGET_RETURN_CODE = 0 THEN
    73            CALL P200_START_DIR;
    74        ELSE
    75        IF PDSGET_RETURN_CODE = 4 THEN
    76            PUT SKIP LIST('OPEN FAILED (RC=4)');
    77        ELSE
    78        IF PDSGET_RETURN_CODE = 8 THEN
    79        DO;
    80            PUT SKIP LIST('OPEN FAILED (RC=8); EXECUTION TERMINATED');
    81            STOP;
    82        END;
    83    END P100_OPEN_PDS;
    84   -P200_START_DIR:PROC;
    85        PDSGET_REQUEST = PDSGET_REQUEST_START;
    86        CALL P900_CALL_GETPDSP;
    87        IF PDSGET_RETURN_CODE = 0 THEN
    88            CALL P300_NEXT_DIR;
    89        ELSE
           /************************ PDSUNLDP - PL/1 F VERSION *****************                            PAGE      4


   MACRO SOURCE2 LISTING

    90        IF PDSGET_RETURN_CODE = 4 THEN
    91            PUT SKIP LIST('START FAILED (RC=4)');
    92        ELSE
    93        IF PDSGET_RETURN_CODE = 8 THEN
    94        DO;
    95            PUT SKIP LIST('START FAILED (RC=8); EXECUTION TERMINATED');
    96            STOP;
    97        END;
    98    END P200_START_DIR;
    99   -P300_NEXT_DIR:PROC;
   100        PDSGET_RETURN_CODE = 0;
   101        DO WHILE(PDSGET_RETURN_CODE = 0);
   102            PDSGET_REQUEST = PDSGET_REQUEST_NEXT;
   103            CALL P900_CALL_GETPDSP;
   104            IF PDSGET_RETURN_CODE = 0 THEN
   105            DO;
   106                CALL P400_LOCATE_MEMBER;
   107                PDSGET_RETURN_CODE = 0;
   108            END;
   109            ELSE
   110            IF PDSGET_RETURN_CODE = 4 THEN
   111                PUT SKIP(2) LIST('END OF DIRECTORY (RC=4)');
   112            ELSE
   113            IF PDSGET_RETURN_CODE = 8 THEN
   114            DO;
   115                PUT SKIP LIST(
   116                             'NEXT FAILED (RC=8); EXECUTION TERMINATED');
   117                STOP;
   118            END;
   119        END; /* DO UNTIL */
   120    END P300_NEXT_DIR;
   121   -P400_LOCATE_MEMBER:PROC;
   122        PDSGET_REQUEST = PDSGET_REQUEST_LOCATE;
   123        CALL P900_CALL_GETPDSP;
   124        IF PDSGET_RETURN_CODE = 0 THEN
   125        DO;
   126        /*  PUT SKIP LIST('MEMBER NAME=',PDSGET_MEMBER);  */
   127            CALL P700_PROCESS_STATS;
   128            CALL P500_READ_MEMBER;
   129        END;
   130        ELSE
   131        IF PDSGET_RETURN_CODE = 4 THEN
   132            PUT SKIP LIST('MEMBER NOT FOUND (RC=4)');
   133        ELSE
   134            IF PDSGET_RETURN_CODE = 8 THEN
           /************************ PDSUNLDP - PL/1 F VERSION *****************                            PAGE      5


   MACRO SOURCE2 LISTING

   135            DO;
   136                PUT SKIP LIST(
   137                          'LOCATE FAILED (RC=8); EXECUTION TERMINATED');
   138                STOP;
   139            END;
   140    END P400_LOCATE_MEMBER;
   141   -P500_READ_MEMBER:PROC;
   142        PDSGET_REQUEST = PDSGET_REQUEST_READ;
   143        CALL P900_CALL_GETPDSP;
   144        WS_MEMBER_COUNT=WS_MEMBER_COUNT+1;
   145        IF PDSGET_RETURN_CODE = 0 THEN
   146        DO;
   147            REC_COUNT=0;
   148            NAME_WORK=PDSGET_MEMBER;
   149            NAME_STR='';
   150            DO CHAR_INDEX=1 TO 8;
   151                IF NAME_WORK_CHAR(CHAR_INDEX) > ' ' THEN
   152                    NAME_STR=NAME_STR || NAME_WORK_CHAR(CHAR_INDEX);
   153            END;
   154            PUT FILE(CARD_FILE) EDIT('./  ADD NAME=',NAME_STR)
   155                                    (A);
   156            IF LENGTH(EXEC_PARM)>0 THEN
   157               PUT FILE(CARD_FILE) EDIT(',',EXEC_PARM)
   158                                    (A,A);
   159            DO WHILE (PDSGET_RETURN_CODE = 0);
   160               PUT FILE(CARD_FILE) EDIT(PDSGET_RECORD80) (SKIP,A);
   161               REC_COUNT=REC_COUNT+1;
   162               CALL P900_CALL_GETPDSP;
   163            END;
   164        END;
   165
   166        IF PDSGET_RETURN_CODE = 4 THEN
   167            PUT EDIT('END OF MEMBER (RC=4)',REC_COUNT,' RECORDS READ')
   168                    (X(2),A,F(5),A);
   169        ELSE
   170            IF PDSGET_RETURN_CODE = 8 THEN
   171            DO;
   172                PUT SKIP LIST(
   173                          'READ FAILED (RC=8); EXECUTION TERMINATED');
   174                STOP;
   175            END;
   176    END P500_READ_MEMBER;
   177   -P600_CLOSE_PDS:PROC;
   178        PDSGET_REQUEST = PDSGET_REQUEST_CLOSE;
   179        CALL P900_CALL_GETPDSP;
           /************************ PDSUNLDP - PL/1 F VERSION *****************                            PAGE      6


   MACRO SOURCE2 LISTING

   180        IF PDSGET_RETURN_CODE = 4 THEN
   181            PUT SKIP LIST('CLOSE FAILED (RC=4)');
   182        ELSE
   183        IF PDSGET_RETURN_CODE = 8 THEN
   184        DO;
   185            PUT SKIP LIST('CLOSE FAILED (RC=8); EXECUTION TERMINATED');
   186            STOP;
   187        END;
   188    END P600_CLOSE_PDS;
   189   -P700_PROCESS_STATS:PROC;
   190        DECLARE  DATE_WORK                CHAR(10),
   191                 DATE_CONV                PIC '(7)9BBB',
   192                 TIME_WORK                CHAR(5);
   193
   194        PDSGET_PTR = ADDR(PDSGET_RECORD80);
   195        PUT SKIP EDIT(PDSGET_MEMBER,PDS_USER_ID) (A,X(2),A);
   196        IF PDS_USER_ID = (8)' ' THEN RETURN;
   197
   198        DC_INPUT_FORMAT =  'YYYYDDD ';
   199        DATE_CONV       =   PDS_DATE_CREATED;
   200        DC_INPUT_DATE   =   DATE_CONV;
   201        DC_OUTPUT_FORMAT = 'YYYYMMDD';
   202        CALL DATCNVP(DATECNV_PARM);
   203        PUT EDIT(SUBSTR(DC_OUTPUT_DATE,1,4),'/') (A,A)
   204                (SUBSTR(DC_OUTPUT_DATE,5,2),'/') (A,A)
   205                (SUBSTR(DC_OUTPUT_DATE,7,2),' ') (A,A);
   206
   207        DC_INPUT_FORMAT =  'YYYYDDD ';
   208        DATE_CONV       =   PDS_DATE_UPDATED;
   209        DC_INPUT_DATE   =   DATE_CONV;
   210        DC_OUTPUT_FORMAT = 'YYYYMMDD';
   211        CALL DATCNVP(DATECNV_PARM);
   212        PUT EDIT(SUBSTR(DC_OUTPUT_DATE,1,4),'/') (A,A)
   213                (SUBSTR(DC_OUTPUT_DATE,5,2),'/') (A,A)
   214                (SUBSTR(DC_OUTPUT_DATE,7,2),' ') (A,A);
   215
   216        SUBSTR(TIME_WORK,1,2) = PDS_TIME_CONVERSION(PDS_TIME_CHANGED_H);
   217        SUBSTR(TIME_WORK,3,1) = ':';
   218        SUBSTR(TIME_WORK,4,2) = PDS_TIME_CONVERSION(PDS_TIME_CHANGED_M);
   219
   220        PUT EDIT(TIME_WORK) (X(2),A);
   221
   222    END P700_PROCESS_STATS;
   223   -P900_CALL_GETPDSP:PROC;
   224        CALL GETPDSP (PDSGET_REQUEST_1,
           /************************ PDSUNLDP - PL/1 F VERSION *****************                            PAGE      7


   MACRO SOURCE2 LISTING

   225                      PDSGET_MEMBER_1,
   226                      PDSGET_RECORD80_1,
   227                      PDSGET_RETURN_CODE_1);
   228    END P900_CALL_GETPDSP;
   229
   230    END PDSUNLD;


   INCLUDED TEXT FOLLOWS FROM DD.MEMBER =  SYSLIB  .GETPDSPA

   231    /********************** GETPDSPA V1.2.0 ******************************/
   232    /*********************************************************************/
   233    /*                                                                   */
   234    /* NAME: GETPDSPA - PARM LIST DEFINITIONS FOR GETPDS V1.3.0          */
   235    /*                                                                   */
   236    /* NOTE: THERE IS A COBOL VERSION OF THIS.  THEY SHOULD BE KEPT      */
   237    /*       IN SYNC.                                                    */
   238    /*                                                                   */
   239    /*********************************************************************/
   240    /*                                                                   */
   241    /*  (C) COPYRIGHT 2017 EDWARD G LISS   ALL RIGHTS RESERVED           */
   242    /*  (C) COPYRIGHT 2023 EDWARD G LISS   ALL RIGHTS RESERVED           */
   243    /*                                                                   */
   244    /*  THIS SOURCE CODE AS WELL AS ANY OBJECT CODE RESULTING FROM THIS  */
   245    /*  SOURCE CODE MAY BE DISTRIBUTED FREELY PROVIDED NO FEE IS CHARGED */
   246    /*  AND FOR NON-COMERCIAL PURPOSES.                                  */
   247    /*                                                                   */
   248    /*  FOR COMMERCIAL DISTRIBUTION RIGHTS, CONTACT THE COPYRIGHT OWNER. */
   249    /*                                                                   */
   250    /*********************************************************************/
   251    /*                                                                   */
   252    /* REVISION HISTORY                                                  */
   253    /* ------  --------------------------------------------------------  */
   254    /* V1.1.0  INITIAL VERSION.                                          */
   255    /* V1.2.0  ADDED THE DEFINITION OF MEMBERS STATS AND ADDED           */
   256    /*         WORK AREAS FOR STATISTICS CODE CONVERSION.                */
   257    /*                                                                   */
   258    /*********************************************************************/
   259
   260        DECLARE
   261           1  PDSGET_PARAMETERS   STATIC ALIGNED,
   262               2  PDSGET_REQUEST_OPEN   INITIAL(0)  FIXED BINARY(31),
   263               2  PDSGET_REQUEST_START  INITIAL(1)  FIXED BINARY(31),
   264               2  PDSGET_REQUEST_LOCATE INITIAL(4)  FIXED BINARY(31),
   265               2  PDSGET_REQUEST_NEXT   INITIAL(5)  FIXED BINARY(31),
           /************************ PDSUNLDP - PL/1 F VERSION *****************                            PAGE      8


   MACRO SOURCE2 LISTING

   266               2  PDSGET_REQUEST_READ   INITIAL(8)  FIXED BINARY(31),
   267               2  PDSGET_REQUEST_CLOSE  INITIAL(12) FIXED BINARY(31);
   268        DECLARE
   269           1   PDSGET_REQUEST_1      STATIC,
   270               2  PDSGET_REQUEST     FIXED BINARY(31),
   271           1   PDSGET_MEMBER_1       STATIC,
   272               2  PDSGET_MEMBER      CHAR(8),     /* DDNAME FOR OPEN */
   273           1   PDSGET_RECORD80_1     STATIC,
   274               2  PDSGET_RECORD80    CHAR(80),
   275           1   PDSGET_RETURN_CODE_1  STATIC,
   276               2  PDSGET_RETURN_CODE FIXED BINARY(31);
   277    /*********************************************************************/
   278    /*                                                                   */
   279    /* PDSGET_RETURN_CODE DEFINITIONS                                    */
   280    /*       RETURN_CODE 0 = SUCCESSFUL COMPLETION OF REQUEST            */
   281    /*       RETURN_CODE 8 = SERIOUS ERROR.                              */
   282    /*       RETURN_CODE 4 = DEPENDS ON REQUEST CODE                     */
   283    /*            REQUEST_CODE    MEANING                                */
   284    /*                  0         PDS COULD NOT BE OPENED.               */
   285    /*                  1         PDS COULD NOT BE OPENED.               */
   286    /*                  4         MEMBER NOT FOUND.                      */
   287    /*                  5         END OF DIRECTORY.                      */
   288    /*                  8         END OF CURRENT MEMBER.                 */
   289    /*                                                                   */
   290    /*********************************************************************/
   291        DECLARE
   292           PDSGET_PTR   POINTER,
   293           1  PDSGET_STATISTICS          BASED(PDSGET_PTR),
   294              2  PDS_C                      CHAR(1),
   295              2  PDS_VERSION                CHAR(1),
   296              2  PDS_MOD                    CHAR(1),
   297              2  PDS_NULL                   CHAR(2),
   298              2  PDS_DATE_CREATED           FIXED DECIMAL(7,0),
   299              2  PDS_DATE_UPDATED           FIXED DECIMAL(7,0),
   300              2  PDS_TIME_CHANGED_H         CHAR(1),
   301              2  PDS_TIME_CHANGED_M         CHAR(1),
   302              2  PDS_CURRENT_LINES          FIXED BINARY(15),
   303              2  PDS_INITIAL_LINES          FIXED BINARY(15),
   304              2  PDS_CHANGED_LINES          FIXED BINARY(15),
   305              2  PDS_USER_ID                CHAR(8);
   306
   307         /*****************************************************************
   308          *                                                               *
   309          *   PDS-TIME-CHANGED -H AND -M ARE UNSIGNED PACKED DECIMALS     *
   310          *   THEY MUST TO CONVERTED TO SIGNED PACK DECIMAL TO USE THEM.  *
           /************************ PDSUNLDP - PL/1 F VERSION *****************                            PAGE      9


   MACRO SOURCE2 LISTING

   311          *   THE PDS_TIME_CONVERSION FUNCTION CAN BE USED FOR THAT.      *
   312          *                                                               *
   313          *   THIS CONVERSION MUST TAKE PLACE FOR BOTH THE -H AND =M      *
   314          *   PDS-TIME-CHANGED- FIELDS.                                   *
   315          *                                                               *
   316          ****************************************************************/
   317        DECLARE PDS_TIME_CONVERSION ENTRY RETURNS(CHAR(2));
   318    PDS_TIME_CONVERSION:PROC(A_BYTE) RETURNS(CHAR(2));
   319        DECLARE A_BYTE             CHAR(1);
   320        DECLARE
   321              PDS_FILLER1_PTR      POINTER,
   322              PDS_FILLER4_PTR      POINTER,
   323
   324              PDS_TIME_WORK        FIXED DECIMAL(5,0) INITIAL(0),
   325
   326           1  PDS_FILLER1                  BASED(PDS_FILLER1_PTR),
   327                   10  FILLER2             CHAR(1),
   328                   10  PDS_TIME_CHAR       CHAR(1),
   329                   10  FILLER3             CHAR(1),
   330           1  PDS_4_DIGIT_TIME             PIC '(4)9',
   331           1  FILLER4                      BASED(PDS_FILLER4_PTR),
   332                   10  FILLER5             CHAR(1),
   333                   10  PDS_TIME            CHAR(2),
   334                   10  FILLER6             CHAR(1);
   335
   336        PDS_FILLER1_PTR = ADDR(PDS_TIME_WORK);
   337        PDS_FILLER4_PTR = ADDR(PDS_4_DIGIT_TIME);
   338
   339        PDS_TIME_WORK = 0;
   340        PDS_TIME_CHAR = A_BYTE;
   341        PDS_4_DIGIT_TIME = PDS_TIME_WORK;
   342        RETURN(PDS_TIME);
   343    END PDS_TIME_CONVERSION;
   344    /********************** GETPDSPA V1.2.0  END *************************/


   INCLUDED TEXT FOLLOWS FROM DD.MEMBER =  SYSLIB  .DATECNVP

   345        /******************* DATECNVP V1.0.0 *****************************
   346         *****************************************************************
   347         *                                                               *
   348         * NAME: DATECNVP - PARM LIST DEFINITIONS FOR DATECNV            *
   349         *                                                               *
   350         * NOTE: THERE IS A COBOL VERSION OF THIS.  THEY SHOULD BE KEPT  *
   351         *       IN SYNC.                                                *
           /************************ PDSUNLDP - PL/1 F VERSION *****************                            PAGE     10


   MACRO SOURCE2 LISTING

   352         *                                                               *
   353         *****************************************************************
   354         *                                                               *
   355         *  (C) COPYRIGHT 2023 EDWARD G LISS   ALL RIGHTS RESERVED       *
   356         *                                                               *
   357         *  THIS SOURCE CODE AS WELL AS ANY OBJECT CODE RESULTING FROM   *
   358         *  THIS SOURCE CODE MAY BE DISTRIBUTED FREELY PROVIDED NO FEE   *
   359         *  IS CHARGED AND FOR NON-COMERCIAL PURPOSES.                   *
   360         *                                                               *
   361         *  FOR COMMERCIAL DISTRIBUTION RIGHTS, CONTACT THE COPYRIGHT    *
   362         *  OWNER.                                                       *
   363         *                                                               *
   364         *****************************************************************
   365         *                                                               *
   366         * REVISION HISTORY                                              *
   367         * ------  ----------------------------------------------------- *
   368         * V1.1.0  INITIAL VERSION.                                      *
   369         *                                                               *
   370         ****************************************************************/
   371
   372         DECLARE
   373           1  DATECNV_PARM               STATIC,
   374              5  DC_RETURN_CODE          FIXED BINARY(31),
   375              5  DC_INPUT_FORMAT         CHAR(8),
   376              5  DC_INPUT_DATE           CHAR(10),
   377              5  DC_OUTPUT_FORMAT        CHAR(8),
   378              5  DC_OUTPUT_DATE          CHAR(10);
   379
   380         /****************** DATECNVP V1.0.0  END ***********************/


   NO ERROR OR WARNING CONDITION HAS BEEN DETECTED FOR THIS MACRO PASS.
           /************************ PDSUNLDP - PL/1 F VERSION *****************                            PAGE     11


                    SOURCE LISTING.


                     /************************ PDSUNLDP - PL/1 F VERSION *****************      1
                           PROGRAM-ID. PDSUNLDP.                                                1
                           AUTHOR. ED LISS.                                                     1
                           DATE-WRITTEN. MARCH, 2010.                                           1
                           DATE-COMPILED.                                                       1
                           REMARKS. THIS PROGRAM READS A PDS AND WRITES EACH MEMBER WITH        1
                                AN ./ ADD SUITABLE FOR RELOADING USING IEBUPDTX OR              1
                                IEBUPDTE.  THE './ ADD NAME=XXXXXXXX' IS GENERATED FOR          1
                                EACH MEMBER.  IF A EXEC_CARD PARM IS PASSED, THE PARM           1
                                IS APPENDED I.E.  './ ADD NAME=XXXXXXXX,PARM'.  USING           1
                                THE PARM ENABLES UTILITY CONTROL STATEMENTS FOR                 1
                                IEBUPDTE OR IEBUPDTX TO BE GENERATED.                           1
                                                                                                1
                                VERSION     DATE     COMMENTS                                   1
                                -------   ---------  ---------------------------------          1
                                 1.0.0      03/2010  ORIGINAL VERSION                           1
                                 1.1.0    06/17/2010 CHANGED SO ONLY NAME PARM                  1
                                                     IS GENERATED.  IF AN EXEC PARM             1
                                                     IS PASSED, IT WILL BE ADDED TO             1
                                                     THE ./ ADD NAME=,PARM                      1
                                 1.2.0    03/19/2023 CODE CLEANUP AND ADDED ISPF/RPF            1
                                                     STATS TO REPORT                            1
                                                                                                1
                     ********************************************************************/      1
                                                                                               24
                                                                                               25
     1               PDSUNLD:PROCEDURE(EXEC_PARM) OPTIONS(MAIN);                               26
                                                                                               27
     2                   DECLARE EXEC_PARM CHAR(100) VARYING;                                  28
     3                   DECLARE CARD_FILE STREAM OUTPUT FILE;                                 29
     4                   DECLARE                                                               30
                            1  WS_MEMBER_COUNT       FIXED BINARY(31) ALIGNED INITIAL(0);      31
                                                                                               32
                     /*#INCLUDE GETPDSPA.PLI*/                                                 33
                     /********************** GETPDSPA V1.2.0 ******************************/  231
                     /*********************************************************************/  232
                     /*                                                                   */  233
                     /* NAME: GETPDSPA - PARM LIST DEFINITIONS FOR GETPDS V1.3.0          */  234
                     /*                                                                   */  235
                     /* NOTE: THERE IS A COBOL VERSION OF THIS.  THEY SHOULD BE KEPT      */  236
                     /*       IN SYNC.                                                    */  237
                     /*                                                                   */  238
                     /*********************************************************************/  239
           /************************ PDSUNLDP - PL/1 F VERSION *****************                            PAGE     12


                     /*                                                                   */  240
                     /*  (C) COPYRIGHT 2017 EDWARD G LISS   ALL RIGHTS RESERVED           */  241
                     /*  (C) COPYRIGHT 2023 EDWARD G LISS   ALL RIGHTS RESERVED           */  242
                     /*                                                                   */  243
                     /*  THIS SOURCE CODE AS WELL AS ANY OBJECT CODE RESULTING FROM THIS  */  244
                     /*  SOURCE CODE MAY BE DISTRIBUTED FREELY PROVIDED NO FEE IS CHARGED */  245
                     /*  AND FOR NON-COMERCIAL PURPOSES.                                  */  246
                     /*                                                                   */  247
                     /*  FOR COMMERCIAL DISTRIBUTION RIGHTS, CONTACT THE COPYRIGHT OWNER. */  248
                     /*                                                                   */  249
                     /*********************************************************************/  250
                     /*                                                                   */  251
                     /* REVISION HISTORY                                                  */  252
                     /* ------  --------------------------------------------------------  */  253
                     /* V1.1.0  INITIAL VERSION.                                          */  254
                     /* V1.2.0  ADDED THE DEFINITION OF MEMBERS STATS AND ADDED           */  255
                     /*         WORK AREAS FOR STATISTICS CODE CONVERSION.                */  256
                     /*                                                                   */  257
                     /*********************************************************************/  258
                                                                                              259
     5                   DECLARE                                                              260
                            1  PDSGET_PARAMETERS   STATIC ALIGNED,                            261
                                2  PDSGET_REQUEST_OPEN   INITIAL(0)  FIXED BINARY(31),        262
                                2  PDSGET_REQUEST_START  INITIAL(1)  FIXED BINARY(31),        263
                                2  PDSGET_REQUEST_LOCATE INITIAL(4)  FIXED BINARY(31),        264
                                2  PDSGET_REQUEST_NEXT   INITIAL(5)  FIXED BINARY(31),        265
                                2  PDSGET_REQUEST_READ   INITIAL(8)  FIXED BINARY(31),        266
                                2  PDSGET_REQUEST_CLOSE  INITIAL(12) FIXED BINARY(31);        267
     6                   DECLARE                                                              268
                            1   PDSGET_REQUEST_1      STATIC,                                 269
                                2  PDSGET_REQUEST     FIXED BINARY(31),                       270
                            1   PDSGET_MEMBER_1       STATIC,                                 271
                                2  PDSGET_MEMBER      CHAR(8),     /* DDNAME FOR OPEN */      272
                            1   PDSGET_RECORD80_1     STATIC,                                 273
                                2  PDSGET_RECORD80    CHAR(80),                               274
                            1   PDSGET_RETURN_CODE_1  STATIC,                                 275
                                2  PDSGET_RETURN_CODE FIXED BINARY(31);                       276
                     /*********************************************************************/  277
                     /*                                                                   */  278
                     /* PDSGET_RETURN_CODE DEFINITIONS                                    */  279
                     /*       RETURN_CODE 0 = SUCCESSFUL COMPLETION OF REQUEST            */  280
                     /*       RETURN_CODE 8 = SERIOUS ERROR.                              */  281
                     /*       RETURN_CODE 4 = DEPENDS ON REQUEST CODE                     */  282
                     /*            REQUEST_CODE    MEANING                                */  283
                     /*                  0         PDS COULD NOT BE OPENED.               */  284
                     /*                  1         PDS COULD NOT BE OPENED.               */  285
                     /*                  4         MEMBER NOT FOUND.                      */  286
           /************************ PDSUNLDP - PL/1 F VERSION *****************                            PAGE     13


                     /*                  5         END OF DIRECTORY.                      */  287
                     /*                  8         END OF CURRENT MEMBER.                 */  288
                     /*                                                                   */  289
                     /*********************************************************************/  290
     7                   DECLARE                                                              291
                            PDSGET_PTR   POINTER,                                             292
                            1  PDSGET_STATISTICS          BASED(PDSGET_PTR),                  293
                               2  PDS_C                      CHAR(1),                         294
                               2  PDS_VERSION                CHAR(1),                         295
                               2  PDS_MOD                    CHAR(1),                         296
                               2  PDS_NULL                   CHAR(2),                         297
                               2  PDS_DATE_CREATED           FIXED DECIMAL(7,0),              298
                               2  PDS_DATE_UPDATED           FIXED DECIMAL(7,0),              299
                               2  PDS_TIME_CHANGED_H         CHAR(1),                         300
                               2  PDS_TIME_CHANGED_M         CHAR(1),                         301
                               2  PDS_CURRENT_LINES          FIXED BINARY(15),                302
                               2  PDS_INITIAL_LINES          FIXED BINARY(15),                303
                               2  PDS_CHANGED_LINES          FIXED BINARY(15),                304
                               2  PDS_USER_ID                CHAR(8);                         305
                                                                                              306
                          /*****************************************************************  307
                           *                                                               *  307
                           *   PDS-TIME-CHANGED -H AND -M ARE UNSIGNED PACKED DECIMALS     *  307
                           *   THEY MUST TO CONVERTED TO SIGNED PACK DECIMAL TO USE THEM.  *  307
                           *   THE PDS_TIME_CONVERSION FUNCTION CAN BE USED FOR THAT.      *  307
                           *                                                               *  307
                           *   THIS CONVERSION MUST TAKE PLACE FOR BOTH THE -H AND =M      *  307
                           *   PDS-TIME-CHANGED- FIELDS.                                   *  307
                           *                                                               *  307
                           ****************************************************************/  307
                                                                                              316
     8                   DECLARE PDS_TIME_CONVERSION ENTRY RETURNS(CHAR(2));                  317
     9               PDS_TIME_CONVERSION:PROC(A_BYTE) RETURNS(CHAR(2));                       318
    10                   DECLARE A_BYTE             CHAR(1);                                  319
    11                   DECLARE                                                              320
                               PDS_FILLER1_PTR      POINTER,                                  321
                               PDS_FILLER4_PTR      POINTER,                                  322
                                                                                              323
                               PDS_TIME_WORK        FIXED DECIMAL(5,0) INITIAL(0),            324
                                                                                              325
                            1  PDS_FILLER1                  BASED(PDS_FILLER1_PTR),           326
                                    10  FILLER2             CHAR(1),                          327
                                    10  PDS_TIME_CHAR       CHAR(1),                          328
                                    10  FILLER3             CHAR(1),                          329
                            1  PDS_4_DIGIT_TIME             PIC '(4)9',                       330
                            1  FILLER4                      BASED(PDS_FILLER4_PTR),           331
                                    10  FILLER5             CHAR(1),                          332
           /************************ PDSUNLDP - PL/1 F VERSION *****************                            PAGE     14


                                    10  PDS_TIME            CHAR(2),                          333
                                    10  FILLER6             CHAR(1);                          334
                                                                                              335
    12                   PDS_FILLER1_PTR = ADDR(PDS_TIME_WORK);                               336
    13                   PDS_FILLER4_PTR = ADDR(PDS_4_DIGIT_TIME);                            337
                                                                                              338
    14                   PDS_TIME_WORK = 0;                                                   339
    15                   PDS_TIME_CHAR = A_BYTE;                                              340
    16                   PDS_4_DIGIT_TIME = PDS_TIME_WORK;                                    341
    17                   RETURN(PDS_TIME);                                                    342
    18               END PDS_TIME_CONVERSION;                                                 343
                     /********************** GETPDSPA V1.2.0  END *************************/  344
                                                                                               35
                     /*#INCLUDE DATECNVP.PLI*/                                                 36
                         /******************* DATECNVP V1.0.0 *****************************   345
                          *****************************************************************   345
                          *                                                               *   345
                          * NAME: DATECNVP - PARM LIST DEFINITIONS FOR DATECNV            *   345
                          *                                                               *   345
                          * NOTE: THERE IS A COBOL VERSION OF THIS.  THEY SHOULD BE KEPT  *   345
                          *       IN SYNC.                                                *   345
                          *                                                               *   345
                          *****************************************************************   345
                          *                                                               *   345
                          *  (C) COPYRIGHT 2023 EDWARD G LISS   ALL RIGHTS RESERVED       *   345
                          *                                                               *   345
                          *  THIS SOURCE CODE AS WELL AS ANY OBJECT CODE RESULTING FROM   *   345
                          *  THIS SOURCE CODE MAY BE DISTRIBUTED FREELY PROVIDED NO FEE   *   345
                          *  IS CHARGED AND FOR NON-COMERCIAL PURPOSES.                   *   345
                          *                                                               *   345
                          *  FOR COMMERCIAL DISTRIBUTION RIGHTS, CONTACT THE COPYRIGHT    *   345
                          *  OWNER.                                                       *   345
                          *                                                               *   345
                          *****************************************************************   345
                          *                                                               *   345
                          * REVISION HISTORY                                              *   345
                          * ------  ----------------------------------------------------- *   345
                          * V1.1.0  INITIAL VERSION.                                      *   345
                          *                                                               *   345
                          ****************************************************************/   345
                                                                                              370
                                                                                              371
    19                    DECLARE                                                             372
                            1  DATECNV_PARM               STATIC,                             373
                               5  DC_RETURN_CODE          FIXED BINARY(31),                   374
                               5  DC_INPUT_FORMAT         CHAR(8),                            375
                               5  DC_INPUT_DATE           CHAR(10),                           376
           /************************ PDSUNLDP - PL/1 F VERSION *****************                            PAGE     15


                               5  DC_OUTPUT_FORMAT        CHAR(8),                            377
                               5  DC_OUTPUT_DATE          CHAR(10);                           378
                                                                                              379
                          /****************** DATECNVP V1.0.0  END ***********************/   380
                                                                                               38
    20                   DECLARE NAME_WORK            CHAR(8),                                 39
                                 1 NAME_WORK_CHARS DEFINED NAME_WORK,                          40
                                   2 NAME_WORK_CHAR(8) CHAR(1);                                41
    21                   DECLARE NAME_STR             CHAR(8) VARYING;                         42
    22                   DECLARE CHAR_INDEX           FIXED BINARY ALIGNED;                    43
    23                   DECLARE (PAGE_NUM,                                                    44
                                  REC_COUNT)          FIXED BINARY ALIGNED                     45
                                                      INIT(0);                                 46
    24                   ON ENDPAGE(SYSPRINT)                                                  47
    25                   BEGIN;                                                                48
    26                      PAGE_NUM = PAGE_NUM + 1;                                           49
    27                      PUT PAGE EDIT('PDSUNLDP V1.2.0','PAGE ',PAGE_NUM)                  50
                                         (A,COL(110),A,P'ZZ9');                                51
    28                      IF PAGE_NUM = 1 &                                                  52
                               LENGTH(EXEC_PARM)>0 THEN                                        53
    29                            PUT SKIP EDIT(' WITH PARM=',EXEC_PARM) (A,A);                54
    30                      PUT SKIP EDIT('MEMBER    USERID  CREATED    UPDATED      TIME',    55
                                          '   COMMENTS') (A,A);                                56
    31                      PUT SKIP;                                                          57
    32                   END;                                                                  58
    33                   SIGNAL ENDPAGE(SYSPRINT);                                             59
    34                   OPEN FILE(CARD_FILE) OUTPUT TITLE('CARDOUT');                         60
    35                   CALL P100_OPEN_PDS;                                                   61
    36                   CALL P600_CLOSE_PDS;                                                  62
                                                                                               63
    37                   PUT SKIP EDIT('MEMBER PROCESSED=',WS_MEMBER_COUNT)(A,F(10));          64
    38                   CLOSE FILE(CARD_FILE);                                                65
    39                   PUT SKIP(2) EDIT('PDSUNLDP V1.2.0 ENDED') (A);                        66
                                                                                               67
    40               P100_OPEN_PDS:PROC;                                                       68
    41                   PDSGET_REQUEST = PDSGET_REQUEST_OPEN;                                 69
    42                   PDSGET_MEMBER  = 'PDSIN   ';                                          70
    43                   CALL P900_CALL_GETPDSP;                                               71
    44                   IF PDSGET_RETURN_CODE = 0 THEN                                        72
    45                       CALL P200_START_DIR;                                              73
    46                   ELSE                                                                  74
    46                   IF PDSGET_RETURN_CODE = 4 THEN                                        75
    47                       PUT SKIP LIST('OPEN FAILED (RC=4)');                              76
    48                   ELSE                                                                  77
    48                   IF PDSGET_RETURN_CODE = 8 THEN                                        78
    49                   DO;                                                                   79
    50                       PUT SKIP LIST('OPEN FAILED (RC=8); EXECUTION TERMINATED');        80
           /************************ PDSUNLDP - PL/1 F VERSION *****************                            PAGE     16


    51                       STOP;                                                             81
    52                   END;                                                                  82
    53               END P100_OPEN_PDS;                                                        83
    54               P200_START_DIR:PROC;                                                      84
    55                   PDSGET_REQUEST = PDSGET_REQUEST_START;                                85
    56                   CALL P900_CALL_GETPDSP;                                               86
    57                   IF PDSGET_RETURN_CODE = 0 THEN                                        87
    58                       CALL P300_NEXT_DIR;                                               88
    59                   ELSE                                                                  89
    59                   IF PDSGET_RETURN_CODE = 4 THEN                                        90
    60                       PUT SKIP LIST('START FAILED (RC=4)');                             91
    61                   ELSE                                                                  92
    61                   IF PDSGET_RETURN_CODE = 8 THEN                                        93
    62                   DO;                                                                   94
    63                       PUT SKIP LIST('START FAILED (RC=8); EXECUTION TERMINATED');       95
    64                       STOP;                                                             96
    65                   END;                                                                  97
    66               END P200_START_DIR;                                                       98
    67               P300_NEXT_DIR:PROC;                                                       99
    68                   PDSGET_RETURN_CODE = 0;                                              100
    69                   DO WHILE(PDSGET_RETURN_CODE = 0);                                    101
    70                       PDSGET_REQUEST = PDSGET_REQUEST_NEXT;                            102
    71                       CALL P900_CALL_GETPDSP;                                          103
    72                       IF PDSGET_RETURN_CODE = 0 THEN                                   104
    73                       DO;                                                              105
    74                           CALL P400_LOCATE_MEMBER;                                     106
    75                           PDSGET_RETURN_CODE = 0;                                      107
    76                       END;                                                             108
    77                       ELSE                                                             109
    77                       IF PDSGET_RETURN_CODE = 4 THEN                                   110
    78                           PUT SKIP(2) LIST('END OF DIRECTORY (RC=4)');                 111
    79                       ELSE                                                             112
    79                       IF PDSGET_RETURN_CODE = 8 THEN                                   113
    80                       DO;                                                              114
    81                           PUT SKIP LIST(                                               115
                                              'NEXT FAILED (RC=8); EXECUTION TERMINATED');    116
    82                           STOP;                                                        117
    83                       END;                                                             118
    84                   END; /* DO UNTIL */                                                  119
    85               END P300_NEXT_DIR;                                                       120
    86               P400_LOCATE_MEMBER:PROC;                                                 121
    87                   PDSGET_REQUEST = PDSGET_REQUEST_LOCATE;                              122
    88                   CALL P900_CALL_GETPDSP;                                              123
    89                   IF PDSGET_RETURN_CODE = 0 THEN                                       124
    90                   DO;                                                                  125
                         /*  PUT SKIP LIST('MEMBER NAME=',PDSGET_MEMBER);  */                 126
    91                       CALL P700_PROCESS_STATS;                                         127
           /************************ PDSUNLDP - PL/1 F VERSION *****************                            PAGE     17


    92                       CALL P500_READ_MEMBER;                                           128
    93                   END;                                                                 129
    94                   ELSE                                                                 130
    94                   IF PDSGET_RETURN_CODE = 4 THEN                                       131
    95                       PUT SKIP LIST('MEMBER NOT FOUND (RC=4)');                        132
    96                   ELSE                                                                 133
    96                       IF PDSGET_RETURN_CODE = 8 THEN                                   134
    97                       DO;                                                              135
    98                           PUT SKIP LIST(                                               136
                                           'LOCATE FAILED (RC=8); EXECUTION TERMINATED');     137
    99                           STOP;                                                        138
   100                       END;                                                             139
   101               END P400_LOCATE_MEMBER;                                                  140
   102               P500_READ_MEMBER:PROC;                                                   141
   103                   PDSGET_REQUEST = PDSGET_REQUEST_READ;                                142
   104                   CALL P900_CALL_GETPDSP;                                              143
   105                   WS_MEMBER_COUNT=WS_MEMBER_COUNT+1;                                   144
   106                   IF PDSGET_RETURN_CODE = 0 THEN                                       145
   107                   DO;                                                                  146
   108                       REC_COUNT=0;                                                     147
   109                       NAME_WORK=PDSGET_MEMBER;                                         148
   110                       NAME_STR='';                                                     149
   111                       DO CHAR_INDEX=1 TO 8;                                            150
   112                           IF NAME_WORK_CHAR(CHAR_INDEX) > ' ' THEN                     151
   113                               NAME_STR=NAME_STR || NAME_WORK_CHAR(CHAR_INDEX);         152
   114                       END;                                                             153
   115                       PUT FILE(CARD_FILE) EDIT('./  ADD NAME=',NAME_STR)               154
                                                     (A);                                     155
   116                       IF LENGTH(EXEC_PARM)>0 THEN                                      156
   117                          PUT FILE(CARD_FILE) EDIT(',',EXEC_PARM)                       157
                                                     (A,A);                                   158
   118                       DO WHILE (PDSGET_RETURN_CODE = 0);                               159
   119                          PUT FILE(CARD_FILE) EDIT(PDSGET_RECORD80) (SKIP,A);           160
   120                          REC_COUNT=REC_COUNT+1;                                        161
   121                          CALL P900_CALL_GETPDSP;                                       162
   122                       END;                                                             163
   123                   END;                                                                 164
                                                                                              165
   124                   IF PDSGET_RETURN_CODE = 4 THEN                                       166
   125                       PUT EDIT('END OF MEMBER (RC=4)',REC_COUNT,' RECORDS READ')       167
                                     (X(2),A,F(5),A);                                         168
   126                   ELSE                                                                 169
   126                       IF PDSGET_RETURN_CODE = 8 THEN                                   170
   127                       DO;                                                              171
   128                           PUT SKIP LIST(                                               172
                                           'READ FAILED (RC=8); EXECUTION TERMINATED');       173
   129                           STOP;                                                        174
           /************************ PDSUNLDP - PL/1 F VERSION *****************                            PAGE     18


   130                       END;                                                             175
   131               END P500_READ_MEMBER;                                                    176
   132               P600_CLOSE_PDS:PROC;                                                     177
   133                   PDSGET_REQUEST = PDSGET_REQUEST_CLOSE;                               178
   134                   CALL P900_CALL_GETPDSP;                                              179
   135                   IF PDSGET_RETURN_CODE = 4 THEN                                       180
   136                       PUT SKIP LIST('CLOSE FAILED (RC=4)');                            181
   137                   ELSE                                                                 182
   137                   IF PDSGET_RETURN_CODE = 8 THEN                                       183
   138                   DO;                                                                  184
   139                       PUT SKIP LIST('CLOSE FAILED (RC=8); EXECUTION TERMINATED');      185
   140                       STOP;                                                            186
   141                   END;                                                                 187
   142               END P600_CLOSE_PDS;                                                      188
   143               P700_PROCESS_STATS:PROC;                                                 189
   144                   DECLARE  DATE_WORK                CHAR(10),                          190
                                  DATE_CONV                PIC '(7)9BBB',                     191
                                  TIME_WORK                CHAR(5);                           192
                                                                                              193
   145                   PDSGET_PTR = ADDR(PDSGET_RECORD80);                                  194
   146                   PUT SKIP EDIT(PDSGET_MEMBER,PDS_USER_ID) (A,X(2),A);                 195
   147                   IF PDS_USER_ID = (8)' ' THEN RETURN;                                 196
                                                                                              197
   149                   DC_INPUT_FORMAT =  'YYYYDDD ';                                       198
   150                   DATE_CONV       =   PDS_DATE_CREATED;                                199
   151                   DC_INPUT_DATE   =   DATE_CONV;                                       200
   152                   DC_OUTPUT_FORMAT = 'YYYYMMDD';                                       201
   153                   CALL DATCNVP(DATECNV_PARM);                                          202
   154                   PUT EDIT(SUBSTR(DC_OUTPUT_DATE,1,4),'/') (A,A)                       203
                                 (SUBSTR(DC_OUTPUT_DATE,5,2),'/') (A,A)                       204
                                 (SUBSTR(DC_OUTPUT_DATE,7,2),' ') (A,A);                      205
                                                                                              206
   155                   DC_INPUT_FORMAT =  'YYYYDDD ';                                       207
   156                   DATE_CONV       =   PDS_DATE_UPDATED;                                208
   157                   DC_INPUT_DATE   =   DATE_CONV;                                       209
   158                   DC_OUTPUT_FORMAT = 'YYYYMMDD';                                       210
   159                   CALL DATCNVP(DATECNV_PARM);                                          211
   160                   PUT EDIT(SUBSTR(DC_OUTPUT_DATE,1,4),'/') (A,A)                       212
                                 (SUBSTR(DC_OUTPUT_DATE,5,2),'/') (A,A)                       213
                                 (SUBSTR(DC_OUTPUT_DATE,7,2),' ') (A,A);                      214
                                                                                              215
   161                   SUBSTR(TIME_WORK,1,2) = PDS_TIME_CONVERSION(PDS_TIME_CHANGED_H);     216
   162                   SUBSTR(TIME_WORK,3,1) = ':';                                         217
   163                   SUBSTR(TIME_WORK,4,2) = PDS_TIME_CONVERSION(PDS_TIME_CHANGED_M);     218
                                                                                              219
   164                   PUT EDIT(TIME_WORK) (X(2),A);                                        220
                                                                                              221
           /************************ PDSUNLDP - PL/1 F VERSION *****************                            PAGE     19


   165               END P700_PROCESS_STATS;                                                  222
   166               P900_CALL_GETPDSP:PROC;                                                  223
   167                   CALL GETPDSP (PDSGET_REQUEST_1,                                      224
                                       PDSGET_MEMBER_1,                                       225
                                       PDSGET_RECORD80_1,                                     226
                                       PDSGET_RETURN_CODE_1);                                 227
   168               END P900_CALL_GETPDSP;                                                   228
                                                                                              229
   169               END PDSUNLD;                                                             230
           /************************ PDSUNLDP - PL/1 F VERSION *****************                            PAGE     20


          STORAGE REQUIREMENTS.
          ----------------------

          THE STORAGE AREA FOR THE PROCEDURE LABELLED PDSUNLD IS 320 BYTES LONG.

          THE STORAGE AREA (IN STATIC) FOR THE PROCEDURE LABELLED PDS_TIME_CONVERSION IS 264 BYTES LONG.

          THE STORAGE AREA FOR THE ON UNIT AT STATEMENT NO. 25 IS 260 BYTES LONG.

          THE STORAGE AREA (IN STATIC) FOR THE PROCEDURE LABELLED P100_OPEN_PDS IS 248 BYTES LONG.

          THE STORAGE AREA (IN STATIC) FOR THE PROCEDURE LABELLED P200_START_DIR IS 248 BYTES LONG.

          THE STORAGE AREA (IN STATIC) FOR THE PROCEDURE LABELLED P300_NEXT_DIR IS 248 BYTES LONG.

          THE STORAGE AREA (IN STATIC) FOR THE PROCEDURE LABELLED P400_LOCATE_MEMBER IS 248 BYTES LONG.

          THE STORAGE AREA (IN STATIC) FOR THE PROCEDURE LABELLED P500_READ_MEMBER IS 284 BYTES LONG.

          THE STORAGE AREA (IN STATIC) FOR THE PROCEDURE LABELLED P600_CLOSE_PDS IS 248 BYTES LONG.

          THE STORAGE AREA (IN STATIC) FOR THE PROCEDURE LABELLED P700_PROCESS_STATS IS 324 BYTES LONG.

          THE STORAGE AREA (IN STATIC) FOR THE PROCEDURE LABELLED P900_CALL_GETPDSP IS 248 BYTES LONG.

          THE PROGRAM CSECT IS NAMED PDSUNLD  AND IS 3862 BYTES LONG.

          THE STATIC  CSECT IS NAMED PDSUNLDA AND IS 4240 BYTES LONG.


*STATISTICS*     MACRO RECORDS =      380,SOURCE RECORDS =      381,PROG TEXT STMNTS =      169,OBJECT BYTES =     3862
           /************************ PDSUNLDP - PL/1 F VERSION *****************                            PAGE     21


TABLE OF OFFSETS AND STATEMENT NUMBERS WITHIN PROCEDURE          PDS_TIME_CONVERSION

OFFSET (HEX)  0000 005C 0064 006C 0072 0084 008E 00A6
STATEMENT NO     9   12   13   14   15   16   17   18


TABLE OF OFFSETS AND STATEMENT NUMBERS WITHIN ON UNIT

OFFSET (HEX)  0000 0048 0058 00C4 010C 0154 0194 01A4
STATEMENT NO    25   26   27   28   29   30   31   32


TABLE OF OFFSETS AND STATEMENT NUMBERS WITHIN PROCEDURE          P100_OPEN_PDS

OFFSET (HEX)  0000 003C 0042 0048 0052 005E 006C 0078 009A 00A6 00A6 00C4 00CA 00CA
STATEMENT NO    40   41   42   43   44   45   46   47   48   49   50   51   52   53


TABLE OF OFFSETS AND STATEMENT NUMBERS WITHIN PROCEDURE          P200_START_DIR

OFFSET (HEX)  0000 003C 0042 004C 0058 0066 0072 0094 00A0 00A0 00BE 00C4 00C4
STATEMENT NO    54   55   56   57   58   59   60   61   62   63   64   65   66


TABLE OF OFFSETS AND STATEMENT NUMBERS WITHIN PROCEDURE          P300_NEXT_DIR

OFFSET (HEX)  0000 003C 0042 004E 0054 005E 006A 006A 0074 007A 007E 008A 00AC 00B8 00B8 00D6 00DC 00DC 00E0
STATEMENT NO    67   68   69   70   71   72   73   74   75   76   77   78   79   80   81   82   83   84   85


TABLE OF OFFSETS AND STATEMENT NUMBERS WITHIN PROCEDURE          P400_LOCATE_MEMBER

OFFSET (HEX)  0000 0040 0046 0050 005C 005C 0066 0070 0074 0080 00A2 00AE 00AE 00CC 00D2 00D2
STATEMENT NO    86   87   88   89   90   91   92   93   94   95   96   97   98   99  100  101


TABLE OF OFFSETS AND STATEMENT NUMBERS WITHIN PROCEDURE          P500_READ_MEMBER

OFFSET (HEX)  0000 0040 0046 0050 0060 006C 006C 0072 0078 007E 0086 009C 00FE 011A 0156 016A 01B2 01BE 01FE 020E 0218
STATEMENT NO   102  103  104  105  106  107  108  109  110  111  112  113  114  115  116  117  118  119  120  121  122

OFFSET (HEX)  021C 021C 0228 0298 02A4 02A4 02C2 02C8 02C8
STATEMENT NO   123  124  125  126  127  128  129  130  131


TABLE OF OFFSETS AND STATEMENT NUMBERS WITHIN PROCEDURE          P600_CLOSE_PDS
           /************************ PDSUNLDP - PL/1 F VERSION *****************                            PAGE     22


OFFSET (HEX)  0000 003C 0042 004C 0058 007A 0086 0086 00A4 00AA 00AA
STATEMENT NO   132  133  134  135  136  137  138  139  140  141  142


TABLE OF OFFSETS AND STATEMENT NUMBERS WITHIN PROCEDURE          P700_PROCESS_STATS

OFFSET (HEX)  0000 0040 004C 00AE 00C0 00C6 00CC 00E6 00EC 00F2 00FC 01D8 01DE 01F8 01FE 0204 020E 02EA 0330 0338 037E
STATEMENT NO   143  145  146  147  148  149  150  151  152  153  154  155  156  157  158  159  160  161  162  163  164

OFFSET (HEX)  03BE
STATEMENT NO   165


TABLE OF OFFSETS AND STATEMENT NUMBERS WITHIN PROCEDURE          P900_CALL_GETPDSP

OFFSET (HEX)  0000 0040 004A
STATEMENT NO   166  167  168


TABLE OF OFFSETS AND STATEMENT NUMBERS WITHIN PROCEDURE          PDSUNLD

OFFSET (HEX)  0000 008C 009A 00B0 00BA 00C4 00CE 0112 011C 014A
STATEMENT NO     1   24   33   34   35   36   37   38   39  169
           /************************ PDSUNLDP - PL/1 F VERSION *****************                            PAGE     23


    COMPILER DIAGNOSTICS.


 ERRORS.


    IEM2867I          IMPLEMENTATION RESTRICTION. EXTERNAL NAME CARD_FILE HAS BEEN TRUNCATED TO 7 CHARACTERS.


 WARNINGS.


    IEM0227I          NO FILE/STRING OPTION SPECIFIED IN ONE OR MORE GET/PUT STATEMENTS. SYSIN/SYSPRINT HAS BEEN


                      ASSUMED IN EACH CASE.


    IEM0764I          ONE OR MORE FIXED BINARY ITEMS OF PRECISION 15 OR LESS HAVE BEEN GIVEN HALFWORD STORAGE. THEY


                      ARE FLAGGED '*********' IN THE XREF/ATR LIST.


 END OF DIAGNOSTICS.


AUXILIARY STORAGE WILL NOT BE USED FOR DICTIONARY WHEN SIZE = 120K


COMPILE TIME         .00 MINS

ELAPSED TIME         .01 MINS

 F64-LEVEL LINKAGE EDITOR OPTIONS SPECIFIED XREF,LIST
          DEFAULT OPTION(S) USED -  SIZE=(231424,55296)


                                                CROSS REFERENCE TABLE


  CONTROL SECTION                       ENTRY

    NAME    ORIGIN  LENGTH                NAME   LOCATION     NAME   LOCATION     NAME   LOCATION     NAME   LOCATION
  PDSUNLD       00     F16
  PDSUNLDA     F18    1090
  IHEMAIN     1FA8       4
  IHENTRY     1FB0       C
  CARDILE     1FC0      38
  IHESPRT     1FF8      38
  IHEDOA  *   2030     23A
                                        IHEDOAA     2030    IHEDOAB     2032
  IHEDBN  *   2270     167
                                        IHEDBNA     2270
  IHEDCN  *   23D8     256
                                        IHEDCNA     23D8    IHEDCNB     23DA
  IHEDMA  *   2630      F8
                                        IHEDMAA     2630
  IHEDNC  *   2728     2B2
                                        IHEDNCA     2728
  IHEIOD  *   29E0     29A
                                        IHEIODG     29E0    IHEIODP     29E2    IHEIODT     2ADA
  IHEVQC  *   2C80     268
                                        IHEVQCA     2C80
  IHEERR  *   2EE8     745
                                        IHEERRD     2EE8    IHEERRC     2EF2    IHEERRB     2EFC    IHEERRA     2F06
                                        IHEERRE     3596
  IHEUPA  *   3630      E8
                                        IHEUPAA     3630    IHEUPAB     369A
  IHEUPB  *   3718      E4
                                        IHEUPBA     3718    IHEUPBB     3780
  IHEVFA  *   3800     16C
                                        IHEVFAA     3800
  IHEVFB  *   3970      F0
                                        IHEVFBA     3970
  IHEVFC  *   3A60      26
                                        IHEVFCA     3A60
  IHEVFD  *   3A88      66
                                        IHEVFDA     3A88
  IHEVFE  *   3AF0      20
                                        IHEVFEA     3AF0
  IHEVKB  *   3B10     30A
                                        IHEVKBA     3B10
  IHEVKC  *   3E20     2D0
                                        IHEVKCA     3E20
  IHEVKF  *   40F0     67C
                                        IHEVKFA     40F0
  IHEVKG  *   4770     4DE


    NAME    ORIGIN  LENGTH                NAME   LOCATION     NAME   LOCATION     NAME   LOCATION     NAME   LOCATION
                                        IHEVKGA     4770
  IHEVPA  *   4C50     1E0
                                        IHEVPAA     4C50
  IHEVPB  *   4E30     1A2
                                        IHEVPBA     4E30
  IHEVPC  *   4FD8     1F0
                                        IHEVPCA     4FD8
  IHEVPD  *   51C8     105
                                        IHEVPDA     51C8
  IHEVPE  *   52D0     278
                                        IHEVPEA     52D0
  IHEVPF  *   5548      50
                                        IHEVPFA     5548
  IHEVPG  *   5598     229
                                        IHEVPGA     5598
  IHEVPH  *   57C8      B4
                                        IHEVPHA     57C8
  IHEABN  *   5880       C
                                        IHEABND     5880
  IHEM91  *   5890     178
                                        IHEM91B     5890    IHEM91A     5898    IHEM91C     59AA
  IHETER  *   5A08     110
                                        IHETERA     5A08
  IHEVQB  *   5B18     4DC
                                        IHEVQBA     5B18
  IHEVQA  *   5FF8      FC
                                        IHEVQAA     5FF8
  IHEVSB  *   60F8      CE
                                        IHEVSBA     60F8
  IHEVSC  *   61C8      AC
                                        IHEVSCA     61C8
  IHEVSE  *   6278     15D
                                        IHEVSEA     6278    IHEVSEB     627A
  IHEVSF  *   63D8      EC
                                        IHEVSFA     63D8
  IHEIOF  *   64C8     2DC
                                        IHEIOFB     64C8    IHEIOFA     64CA    IHEITAZ     6766    IHEITAX     6772
                                        IHEITAA     6786
  IHEDOB  *   67A8     144
                                        IHEDOBA     67A8    IHEDOBB     67AA    IHEDOBC     67AC
  IHEDOE  *   68F0      DA
                                        IHEDOEA     68F0
  IHEIOP  *   69D0     1F7
                                        IHEIOPA     69D0    IHEIOPB     69D2    IHEIOPC     69D6
  IHEIOX  *   6BC8     14C
                                        IHEIOXA     6BC8    IHEIOXB     6BCA    IHEIOXC     6BCE
  IHELDO  *   6D18     418
                                        IHELDOA     6D18    IHELDOB     6D1A    IHELDOC     6D1E
  IHESAP  *   7130     B1C
                                        IHESADA     7130    IHESAPC     714A    IHESAPD     7152    IHESAPA     715A
                                        IHESAPB     7162    IHESADF     716A    IHESADB     7172    IHESADE     717A
                                        IHESAFC     7182    IHESAFA     718A    IHESAFB     7192    IHESAFD     719A


    NAME    ORIGIN  LENGTH                NAME   LOCATION     NAME   LOCATION     NAME   LOCATION     NAME   LOCATION
                                        IHESARA     71A2    IHESAFQ     71AA    IHESARC     799C    IHESADD     7AB0
                                        IHESAFF     7AEA
  IHEBEG  *   7C50      80
                                        IHEBEGN     7C50    IHEBEGA     7C90
  IHEDDO  *   7CD0     288
                                        IHEDDOA     7CD0    IHEDDOB     7CD2    IHEDDOC     7CD4    IHEDDOD     7CD6
                                        IHEDDOE     7CD8
  IHEOCL  *   7F58     580
                                        IHEOCLA     7F58    IHEOCLB     7F5A    IHEOCLC     7F5C    IHEOCLD     7F5E
  IHEPRT  *   84D8     308
                                        IHEPRTA     84D8    IHEPRTB     84DA
  IHESIZ  *   87E0       C
                                        IHESIZE     87E0
  IHETAB  *   87F0       C
                                        IHETABS     87F0
  IHEDDP  *   8800     28C
                                        IHEDDPA     8800    IHEDDPB     8802    IHEDDPC     8804    IHEDDPD     8806
  DATECNV *   8A90     30A
                                        DATCNVP     8A98
  GETPDS  *   8DA0     604
                                        NCZ93205    8DA0    GETPDSP     8DA8
  @GETDIR *   93A8     214
  IHECSK  *   95C0     13A
                                        IHECSKR     95C0    IHECSKK     95EC
  IHEIOB  *   9700     1E0
                                        IHEIOBA     9700    IHEIOBB     9708    IHEIOBC     9710    IHEIOBD     9718
                                        IHEIOBE     9720    IHEIOBT     9808
  IHEOSS  *   98E0      34
                                        IHEOSSA     98E0


  LOCATION  REFERS TO SYMBOL  IN CONTROL SECTION             LOCATION  REFERS TO SYMBOL  IN CONTROL SECTION
       10            PDSUNLDA        PDSUNLDA                     218            PDSUNLDA        PDSUNLDA
      F38            IHESADA         IHESAP                       F3C            IHESADB         IHESAP
      F40            PDSUNLD         PDSUNLD                      F44            PDSUNLD         PDSUNLD
      FCC            PDSUNLD         PDSUNLD                      FD0            PDSUNLD         PDSUNLD
      FD4            PDSUNLD         PDSUNLD                      FD8            PDSUNLD         PDSUNLD
      FDC            PDSUNLD         PDSUNLD                      FE0            PDSUNLD         PDSUNLD
      FE4            PDSUNLD         PDSUNLD                      FE8            PDSUNLD         PDSUNLD
      FEC            PDSUNLD         PDSUNLD                      FF0            PDSUNLD         PDSUNLD
      FF4            PDSUNLD         PDSUNLD                      FF8            IHELDOB         IHELDO
      FFC            IHEIOXC         IHEIOX                      1000            IHEIOXC         IHEIOX
     1004            IHEIOXB         IHEIOX                      1008            IHEIOXB         IHEIOX
     100C            IHEIOPB         IHEIOP                      1010            IHEIOPB         IHEIOP
     1014            IHEDOEA         IHEDOE                      1018            IHEDOEA         IHEDOE
     101C            IHEDOBB         IHEDOB                      1020            IHEDOBB         IHEDOB
     1024            IHEDOAA         IHEDOA                      1028            IHEDOAA         IHEDOA
     102C            IHEIOBA         IHEIOB                      1030            IHEOCLB         IHEOCL
     1034            IHEOCLA         IHEOCL                      1038            IHEIOBC         IHEIOB
     103C            IHEIOBT         IHEIOB                      1040            IHEIOBB         IHEIOB
     1044            IHEOSSA         IHEOSS                      1048            IHEERRB         IHEERR


  LOCATION  REFERS TO SYMBOL  IN CONTROL SECTION             LOCATION  REFERS TO SYMBOL  IN CONTROL SECTION
      F48            IHESAFA         IHESAP                      104C            IHESAFB         IHESAP
     1050            IHECSKK         IHECSK                      1054            DATCNVP         DATECNV
     1058            GETPDSP         GETPDS                      105C            CARDILE         CARDILE
     1060            IHESPRT         IHESPRT                     146C            IHESPRT         IHESPRT
     1471            PDSUNLD         PDSUNLD                     1474            IHESPRT         IHESPRT
     1479            PDSUNLD         PDSUNLD                     147C            IHESPRT         IHESPRT
     1481            PDSUNLD         PDSUNLD                     1484            IHESPRT         IHESPRT
     1488            PDSUNLD         PDSUNLD                     1490            IHESPRT         IHESPRT
     1494            PDSUNLD         PDSUNLD                     149C            IHESPRT         IHESPRT
     14A0            PDSUNLD         PDSUNLD                     14A8            IHESPRT         IHESPRT
     14AC            PDSUNLD         PDSUNLD                     14B4            IHESPRT         IHESPRT
     14B9            PDSUNLD         PDSUNLD                     14BC            CARDILE         CARDILE
     14C1            PDSUNLD         PDSUNLD                     14C4            CARDILE         CARDILE
     14C9            PDSUNLD         PDSUNLD                     14CC            CARDILE         CARDILE
     14D1            PDSUNLD         PDSUNLD                     14D4            IHESPRT         IHESPRT
     14D8            PDSUNLD         PDSUNLD                     14E0            IHESPRT         IHESPRT
     14E4            PDSUNLD         PDSUNLD                     14EC            IHESPRT         IHESPRT
     14F0            PDSUNLD         PDSUNLD                     14F8            IHESPRT         IHESPRT
     14FC            PDSUNLD         PDSUNLD                     1504            IHESPRT         IHESPRT
     1508            PDSUNLD         PDSUNLD                     1510            IHESPRT         IHESPRT
     1514            PDSUNLD         PDSUNLD                     151C            IHESPRT         IHESPRT
     1520            PDSUNLD         PDSUNLD                     1528            IHESPRT         IHESPRT
     152C            PDSUNLD         PDSUNLD                     1534            IHESPRT         IHESPRT
     1538            PDSUNLD         PDSUNLD                     1540            CARDILE         CARDILE
     154C            IHESPRT         IHESPRT                     1550            PDSUNLD         PDSUNLD
     1558            CARDILE         CARDILE                     1578            IHESPRT         IHESPRT
     157C            PDSUNLD         PDSUNLD                     1584            IHESPRT         IHESPRT
     1588            PDSUNLD         PDSUNLD                     1590            IHESPRT         IHESPRT
     1594            PDSUNLD         PDSUNLD                     159C            IHESPRT         IHESPRT
     15A1            PDSUNLD         PDSUNLD                     1FA8            PDSUNLD         PDSUNLD
     1FB8            IHESAPC         IHESAP                      2250            IHEIODP         IHEIOD
     2254            IHEIODT         IHEIOD                      2258            IHEDMAA         IHEDMA
     225C            IHEDCNA         IHEDCN                      2260            IHEDBNA         IHEDBN
     2264            IHEVQCA         IHEVQC                      23C0            IHEDMAA         IHEDMA
     23C4            IHEUPBB         IHEUPB                      23C8            IHEUPAB         IHEUPA
     23CC            IHEERRB         IHEERR                      25F4            IHEDMAA         IHEDMA
     25F8            IHEVQBA         IHEVQB                      25FC            IHEERRB         IHEERR
     2600            IHEUPAB         IHEUPA                      2604            IHEUPBB         IHEUPB
     2608            IHEUPAA         IHEUPA                      260C            IHEUPBA         IHEUPB
     269C            IHEVFBA         IHEVFB                      26A0            IHEVFCA         IHEVFC
     26A8            IHEVFAA         IHEVFA                      26AC            IHEVPAA         IHEVPA
     26B0            IHEVKGA         IHEVKG                      26B4            IHEVPDA         IHEVPD
     26B8            IHEVKFA         IHEVKF                      26BC            IHEVPBA         IHEVPB
     26C0            IHEVPCA         IHEVPC                      26EC            IHEVFDA         IHEVFD
     26F0            IHEVFEA         IHEVFE                      26F8            IHEVPHA         IHEVPH
     26FC            IHEVPGA         IHEVPG                      2700            IHEVKCA         IHEVKC
     2704            IHEVPFA         IHEVPF                      2708            IHEVKBA         IHEVKB
     270C            IHEVPEA         IHEVPE                      29BC            IHEDMAA         IHEDMA
     29C0            IHEUPAB         IHEUPA                      29C4            IHEVSCA         IHEVSC
     29C8            IHEVSEB         IHEVSE                      29CC            IHEVQCA         IHEVQC
     2C68            IHEIOFA         IHEIOF                      2C6C            IHEERRB         IHEERR
     2C70            IHEERRC         IHEERR                      2DD0            IHEVSEB         IHEVSE


  LOCATION  REFERS TO SYMBOL  IN CONTROL SECTION             LOCATION  REFERS TO SYMBOL  IN CONTROL SECTION
     2E54            IHEERRC         IHEERR                      2E70            IHEERRB         IHEERR
     2EC4            IHEVSCA         IHEVSC                      35DC            IHEM91A         IHEM91
     35E0            IHEM91B         IHEM91                      35E4            IHEM91C         IHEM91
     35E8            IHEABND         IHEABN                      360C            IHETERA         IHETER
     37F4            IHEDMAA         IHEDMA                      3A48            IHEERRB         IHEERR
     4764            IHEERRB         IHEERR                      4C3C            IHEERRB         IHEERR
     4E2C            IHEERRB         IHEERR                      4FB0            IHEERRC         IHEERR
     4FC0            IHEERRB         IHEERR                      51B0            IHEERRC         IHEERR
     51B4            IHEERRB         IHEERR                      52C0            IHEERRB         IHEERR
     5530            IHEERRB         IHEERR                      57B4            IHEERRB         IHEERR
     5878            IHEERRB         IHEERR                      59F0            IHEERRC         IHEERR
     5F28            IHEERRB         IHEERR                      5F2C            IHEVQAA         IHEVQA
     60DC            IHEERRB         IHEERR                      63C8            IHEERRB         IHEERR
     63CC            IHEERRC         IHEERR                      64BC            IHEERRC         IHEERR
     6794            IHEERRB         IHEERR                      6798            IHEERRC         IHEERR
     68CC            IHEERRC         IHEERR                      68D0            IHEIODP         IHEIOD
     68D4            IHEIODT         IHEIOD                      68D8            IHEDNCA         IHEDNC
     68DC            IHEVSCA         IHEVSC                      68E0            IHEVSEA         IHEVSE
     68E4            IHEVSBA         IHEVSB                      68E8            IHEVSFA         IHEVSF
     69B0            IHEVSBA         IHEVSB                      69B4            IHEDMAA         IHEDMA
     69B8            IHEIODP         IHEIOD                      69BC            IHEIODT         IHEIOD
     69C0            IHEDCNA         IHEDCN                      69C4            IHEDBNA         IHEDBN
     6BAC            IHEIOFA         IHEIOF                      6BB0            IHEERRB         IHEERR
     6BB4            IHEERRC         IHEERR                      6CFC            IHEERRB         IHEERR
     6D00            IHEERRC         IHEERR                      6D04            IHEIODG         IHEIOD
     6D08            IHEIODP         IHEIOD                      6D0C            IHEIODT         IHEIOD
     6D10            IHEIOFA         IHEIOF                      711C            IHEERRC         IHEERR
     7120            IHEIOFA         IHEIOF                      7124            IHEVSBA         IHEVSB
     7128            IHEVSCA         IHEVSC                      712C            IHEDNCA         IHEDNC
     7B4C            IHEMAIN         IHEMAIN                     7B6C            IHEOCLD         IHEOCL
     7B70            IHESIZE         IHESIZ                      7B74            IHEBEGA         IHEBEG
     7BF8            IHEITAX         IHEIOF                      7BFC            IHEERRB         IHEERR
     7C00            IHEERRC         IHEERR                      7C04            IHETABS         IHETAB
     7C08            IHEITAZ         IHEIOF                      739D            IHEERRA         IHEERR
     7C3C            IHEPRTA         IHEPRT                      7C40            IHEPRTB         IHEPRT
     7C44            IHEDDOD         IHEDDO                      7C48            IHEOCLC         IHEOCL
     7F38            IHEIOFA         IHEIOF                      7F3C            IHELDOC         IHELDO
     7F40            IHEPRTB         IHEPRT                      7F44            IHEDDPA         IHEDDP
     7F48            IHEDDPB         IHEDDP                      7F4C            IHEDDPC         IHEDDP
     7F50            IHEDDPD         IHEDDP                      84B8            IHEIOFA         IHEIOF
     84C0            IHEERRB         IHEERR                      84C4            IHEERRC         IHEERR
     87AC            IHEOCLA         IHEOCL                      87B0            IHEIOFA         IHEIOF
     87B4            IHESPRT         IHESPRT                     9380            @GETDIR         @GETDIR
     9388            @GETDIR         @GETDIR                     98B4            IHEIOPA         IHEIOP
     98B8            IHEIOPB         IHEIOP                      98BC            IHEIOPC         IHEIOP
     98C0            IHEIOPA         IHEIOP                      98C4            IHEOCLC         IHEOCL
     98D8            IHEERRB         IHEERR                      98DC            IHEERRC         IHEERR
     990C            IHEERRB         IHEERR                      9910            IHESAFQ         IHESAP

  LOCATION   5B14 REQUESTS CUMULATIVE PSEUDO REGISTER LENGTH

 PSEUDO REGISTERS



    NAME    ORIGIN  LENGTH        NAME    ORIGIN  LENGTH        NAME    ORIGIN  LENGTH        NAME    ORIGIN  LENGTH
  IHEQINV       00       4      IHEQERR        4       4      IHEQTIC        8       4      IHEQLWF        C       4
  IHEQSLA       10       4      IHEQLW0       14       4      PDSUNLDB      18       4      PDSUNLDC      1C       4
  PDSUNLDD      20       4      PDSUNLDE      24       4      PDSUNLDF      28       4      PDSUNLDG      2C       4
  PDSUNLDH      30       4      PDSUNLDI      34       4      PDSUNLDJ      38       4      PDSUNLDK      3C       4
  PDSUNLDL      40       4      CARDILE       44       4      IHEQSPR       48       4      IHEQLSA       4C       4
  IHEQLW1       50       4      IHEQLW2       54       4      IHEQLW3       58       4      IHEQLW4       5C       4
  IHEQLWE       60       4      IHEQLCA       64       4      IHEQVDA       68       4      IHEQFVD       6C       4
  IHEQFOP       70       4      IHEQCFL       74       8      IHEQADC       7C       4      IHEQLPR       80       4
  IHEQSAR       84       4      IHEQRTC       88       4      IHEQSFC       8C       4      IHEQXLV       90       8

  IHEQEVT       98       8
 TOTAL LENGTH OF PSEUDO REGISTERS      A0
 ENTRY ADDRESS     1FB0

 TOTAL LENGTH      9918
****PDSUNLDP  DOES NOT EXIST BUT HAS BEEN ADDED TO DATA SET
AUTHORIZATION CODE IS         0.
                                                                                                            PAGE      1
VERSION 5.5                                     OS/360 PL/I COMPILER (F)                                    DATE 23.096


PL/I F COMPILER OPTIONS SPECIFIED ARE AS FOLLOWS--

     MACRO


THE COMPLETE LIST OF OPTIONS USED DURING THIS COMPILATION IS--   EBCDIC
                                                                 CHAR60
                                                                 MACRO
                                                                 SOURCE2
                                                               NOMACDCK
                                                                 COMP
                                                                 SOURCE
                                                               NOATR
                                                               NOXREF
                                                               NOEXTREF
                                                               NOLIST
                                                                 LOAD
                                                               NODECK
                                                                 FLAGW
                                                               NOSTMT
                                                                 SIZE=1028712
                                                                 LINECNT=050
                                                                 OPT=01
                                                                 SORMGIN=(002,072)
                                                               NOEXTDIC
                                                               NONEST
                                                                 OPLIST
                                                                 SYNCHKT


*OPTIONS IN EFFECT*     EBCDIC,CHAR60,MACRO,SOURCE2,NOMACDCK,COMP,SOURCE,NOATR,NOXREF,NOEXTREF,NOLIST,LOAD,
*OPTIONS IN EFFECT*     NODECK,FLAGW,NOSTMT,SIZE=1028712,LINECNT=050,OPT=01,SORMGIN=(002,072),NOEXTDIC,
*OPTIONS IN EFFECT*     NONEST,OPLIST,SYNCHKT
           /********************** PDSCANR V1.1.1 *******************************/                          PAGE      2


   COMPILE-TIME MACRO PROCESSOR
   MACRO SOURCE2 LISTING

     1    /********************** PDSCANR V1.1.1 *******************************/
     2    /*********************************************************************/
     3    /*                                                                   */
     4    /* NAME: PDSCANR - SCAN A PDS FOR GIVEN STRINGS.                     */
     5    /*                                                                   */
     6    /*********************************************************************/
     7    /*                                                                   */
     8    /*  (C) COPYRIGHT 2023  EDWARD G LISS      ALL RIGHTS RESERVED       */
     9    /*                                                                   */
    10    /*  THIS SOURCE CODE AS WELL AS ANY OBJECT CODE RESULTING FROM THIS  */
    11    /*  SOURCE CODE MAY BE DISTRIBUTED FREELY PROVIDED NO FEE IS CHARGED */
    12    /*  AND FOR NON-COMERCIAL PURPOSES.                                  */
    13    /*                                                                   */
    14    /*  FOR COMMERCIAL DISTRIBUTION RIGHTS, CONTACT THE COPYRIGHT OWNER. */
    15    /*                                                                   */
    16    /*********************************************************************/
    17    /*                                                                   */
    18    /*   THIS PROGRAM READS ALL THE MEMBERS OF A PDS AND SCANS EACH      */
    19    /*   EACH RECORD FOR GIVEN STRINGS.  THE STRINGS ARE ENTERED VIA     */
    20    /*   THE SYSIN DD.  EACH STRING CAN BE UP TO 8 CHARACTERS AND MUST   */
    21    /*   BE ENCLOSED IN QUOTES (I.E. 'STRING').  STRINGS ARE SEPERATED   */
    22    /*   BY COMMAS.  NO SEQUENCE NUMBERS IN 73-80.                       */
    23    /*                                                                   */
    24    /*   THE PDS TO SCAN IS POINTED TO BY DDNAME PDSIN.                  */
    25    /*                                                                   */
    26    /*   AN EXEC PARM CAN BE GIVEN - THE DEFAULT OF ANY WILL PRINT       */
    27    /*   WHEN IT MATCHES ANY OF THE SEARCH STRINGS.  A PARM OF 'ALL'     */
    28    /*   WILL PRINT WHEN ALL THE STRINGS ARE FOUND IN A RECORD.          */
    29    /*                                                                   */
    30    /* REVISION HISTORY                                                  */
    31    /* ------  --------------------------------------------------------  */
    32    /* V1.0.0  NEW PROGRAM.  OCTOBER, 2012                               */
    33    /*                                                                   */
    34    /* V1.1.0  BUG FIX.  07/22/2020                                      */
    35    /*         PROBLEM:  FIRST RECORD OF EACH MEMBER WAS BEING SKIPPED.  */
    36    /*         BUG IN GETPDSP DID NOT RETURN 1ST RECORD ON 1ST CALL.     */
    37    /*                                                                   */
    38    /* V1.1.1  CLEAN UP. 03/31/2023                                      */
    39    /*         MODIFIED TO USE INCLUDES FOR PDSGET_PARAMETERS.           */
    40    /*         NO FUNCTIONAL CHANGES.                                    */
    41    /*                                                                   */
    42    /*********************************************************************/
    43
    44    PDSCANR:PROCEDURE(EXEC_PARM) OPTIONS(MAIN);
           /********************** PDSCANR V1.1.1 *******************************/                          PAGE      3


   MACRO SOURCE2 LISTING

    45
    46        DECLARE EXEC_PARM            CHAR(100) VARYING;
    47        DECLARE LAST_MEMBER          CHAR(8) INITIAL((8)' ');
    48        DECLARE PAGE_CTR             INITIAL(0)    FIXED DECIMAL(5,0);
    49        DECLARE (ANY_OPTION,       INITIAL('0'B),
    50                 ALL_OPTION        INITIAL('0'B))  BIT(1) ALIGNED;
    51        DECLARE
    52           1  WS_MEMBER_COUNT       FIXED BINARY(31) ALIGNED INITIAL(0);
    53
    54        %INCLUDE GETPDSPA;
    55
    56        DECLARE
    57           1   SCAN_STRS,
    58               2  SCAN_TBL_MAX       FIXED BINARY(15,0) INITIAL(0),
    59               2  SCAN_TBL(20),
    60                  3  SCAN_STR        CHAR(8) VARYING,
    61                  3  SCAN_CTR        FIXED DECIMAL(7,0);
    62
    63        SCAN_STR(*)='';
    64        SCAN_CTR(*)=0;
    65        ON ENDPAGE(SYSPRINT)
    66        BEGIN;
    67           IF PAGE_CTR > 0 THEN PUT PAGE;
    68           PAGE_CTR=PAGE_CTR+1;
    69           PUT EDIT('PDSCANR V1.1.1','PAGE ',PAGE_CTR)
    70                        (A,COL(110),A,F(5));
    71           PUT SKIP(2);
    72           IF LAST_MEMBER = (8)' ' THEN;
    73           ELSE
    74           DO;
    75               PUT SKIP EDIT('MEMBER ',LAST_MEMBER,' (CONTINUED)')
    76                  (A,A,A);
    77               PUT SKIP(2);
    78           END;
    79        END;
    80   1    SIGNAL ENDPAGE(SYSPRINT);
    81        CALL P000_LOAD_STR;
    82        CALL P100_OPEN_PDS;
    83        CALL P600_CLOSE_PDS;
    84
    85        PUT SKIP EDIT('MEMBER PROCESSED=',WS_MEMBER_COUNT)(A,F(10));
    86        DO I=1 TO SCAN_TBL_MAX;
    87           PUT SKIP LIST(SCAN_STR(I),'FOUND',SCAN_CTR(I));
    88        END;
    89        PUT SKIP LIST('PDSCANR CONCLUDED');
           /********************** PDSCANR V1.1.1 *******************************/                          PAGE      4


   MACRO SOURCE2 LISTING

    90
    91   -P000_LOAD_STR:PROC;
    92        DECLARE WORK_STR  CHAR(8) VARYING;
    93        DECLARE E_O_F     BIT(1)  ALIGNED INITIAL('0'B);
    94        DECLARE I         FIXED BINARY ALIGNED;
    95        IF LENGTH(EXEC_PARM) = 0 THEN
    96        DO;
    97           PUT SKIP EDIT('NO EXEC PARM FOUND.  DEFAULTING TO ''ANY''')
    98               (A);
    99           ANY_OPTION='1'B;
   100        END;
   101        ELSE
   102        IF LENGTH(EXEC_PARM)=3 THEN
   103        DO;
   104           PUT SKIP EDIT('PARM=''',EXEC_PARM,'''') (A,A,A);
   105           IF EXEC_PARM = 'ANY' THEN ANY_OPTION='1'B;
   106           ELSE
   107              IF EXEC_PARM = 'ALL' THEN ALL_OPTION='1'B;
   108              ELSE
   109                 PUT SKIP LIST('INVALID PARM');
   110        END;
   111        ELSE
   112           PUT SKIP LIST('INVALID PARM');
   113        PUT SKIP;
   114        ON ENDFILE(SYSIN)  E_O_F = '1'B;
   115        DO WHILE (E_O_F = '0'B);
   116           GET LIST(WORK_STR);
   117           IF E_O_F = '0'B THEN
   118           DO;
   119              IF LENGTH(WORK_STR)=0 THEN
   120              DO;
   121                 PUT SKIP LIST('NULL SEARCH STRING IGNORED');
   122              END;
   123              ELSE
   124              DO;
   125                 SCAN_TBL_MAX=SCAN_TBL_MAX+1;
   126                 SCAN_STR(SCAN_TBL_MAX)=WORK_STR;
   127              END;
   128           END;
   129        END;
   130        IF SCAN_TBL_MAX=0 THEN
   131        DO;
   132            PUT SKIP LIST('NO STRINGS TO SCAN FOR');
   133            STOP;
   134        END;
           /********************** PDSCANR V1.1.1 *******************************/                          PAGE      5


   MACRO SOURCE2 LISTING

   135        PUT SKIP LIST('THE FOLLOWING STRINGS WILL BE SEARCHED FOR');
   136        PUT SKIP(2) LIST(' ','STRING');
   137        DO I=1 TO SCAN_TBL_MAX;
   138           PUT SKIP LIST(I,SCAN_STR(I));
   139        END;
   140    END P000_LOAD_STR;
   141   -P100_OPEN_PDS:PROC;
   142        PDSGET_REQUEST = PDSGET_REQUEST_OPEN;
   143        PDSGET_MEMBER  = 'PDSIN   ';
   144        CALL P900_CALL_GETPDSP;
   145        IF PDSGET_RETURN_CODE = 0 THEN
   146            CALL P200_START_DIR;
   147        ELSE
   148        IF PDSGET_RETURN_CODE = 4 THEN
   149            PUT SKIP LIST('OPEN FAILED (RC=4)');
   150        ELSE
   151        IF PDSGET_RETURN_CODE = 8 THEN
   152        DO;
   153            PUT SKIP LIST('OPEN FAILED (RC=8); EXECUTION TERMINATED');
   154            STOP;
   155        END;
   156    END P100_OPEN_PDS;
   157   -P200_START_DIR:PROC;
   158        PDSGET_REQUEST = PDSGET_REQUEST_START;
   159        CALL P900_CALL_GETPDSP;
   160        IF PDSGET_RETURN_CODE = 0 THEN
   161            CALL P300_NEXT_DIR;
   162        ELSE
   163        IF PDSGET_RETURN_CODE = 4 THEN
   164            PUT SKIP LIST('START FAILED (RC=4)');
   165        ELSE
   166        IF PDSGET_RETURN_CODE = 8 THEN
   167        DO;
   168            PUT SKIP LIST('START FAILED (RC=8); EXECUTION TERMINATED');
   169            STOP;
   170        END;
   171    END P200_START_DIR;
   172   -P300_NEXT_DIR:PROC;
   173        PDSGET_RETURN_CODE = 0;
   174        DO WHILE(PDSGET_RETURN_CODE = 0);
   175            PDSGET_REQUEST = PDSGET_REQUEST_NEXT;
   176            CALL P900_CALL_GETPDSP;
   177            IF PDSGET_RETURN_CODE = 0 THEN
   178            DO;
   179                CALL P400_LOCATE_MEMBER;
           /********************** PDSCANR V1.1.1 *******************************/                          PAGE      6


   MACRO SOURCE2 LISTING

   180                PDSGET_RETURN_CODE = 0;
   181            END;
   182            ELSE
   183            IF PDSGET_RETURN_CODE = 4 THEN
   184                PUT SKIP LIST('END OF DIRECTORY (RC=4)');
   185            ELSE
   186            IF PDSGET_RETURN_CODE = 8 THEN
   187            DO;
   188                PUT SKIP LIST(
   189                             'NEXT FAILED (RC=8); EXECUTION TERMINATED');
   190                STOP;
   191            END;
   192        END; /* DO UNTIL */
   193    END P300_NEXT_DIR;
   194   -P400_LOCATE_MEMBER:PROC;
   195        PDSGET_REQUEST = PDSGET_REQUEST_LOCATE;
   196        CALL P900_CALL_GETPDSP;
   197        IF PDSGET_RETURN_CODE = 0 THEN
   198        DO;
   199         /* PUT SKIP LIST('MEMBER NAME=',PDSGET_MEMBER); */
   200            CALL P500_READ_MEMBER;
   201        END;
   202        ELSE
   203        IF PDSGET_RETURN_CODE = 4 THEN
   204            PUT SKIP LIST('MEMBER NOT FOUND (RC=4)');
   205        ELSE
   206            IF PDSGET_RETURN_CODE = 8 THEN
   207            DO;
   208                PUT SKIP LIST(
   209                          'LOCATE FAILED (RC=8); EXECUTION TERMINATED');
   210                STOP;
   211            END;
   212    END P400_LOCATE_MEMBER;
   213   -P500_READ_MEMBER:PROC;
   214        DECLARE I          FIXED BINARY ALIGNED,
   215                HIT_CNT    FIXED DECIMAL(7,0);
   216        PDSGET_REQUEST = PDSGET_REQUEST_READ;
   217    /************************************ V1.1.0 FIX START **************
   218        CALL P900_CALL_GETPDSP;
   219    ************************************* V1.1.0 FIX END   *************/
   220        WS_MEMBER_COUNT=WS_MEMBER_COUNT+1;
   221        IF PDSGET_RETURN_CODE = 0 THEN
   222        DO;
   223            DO WHILE (PDSGET_RETURN_CODE = 0);
   224               CALL P900_CALL_GETPDSP;
           /********************** PDSCANR V1.1.1 *******************************/                          PAGE      7


   MACRO SOURCE2 LISTING

   225               IF PDSGET_RETURN_CODE = 0 THEN
   226               DO;
   227                  HIT_CNT=0;
   228                  DO I=1 TO SCAN_TBL_MAX;
   229                     IF INDEX(PDSGET_RECORD80,SCAN_STR(I))> 0 THEN
   230                     DO;
   231                        HIT_CNT=HIT_CNT+1;
   232                        SCAN_CTR(I)=SCAN_CTR(I)+1;
   233                     END;
   234                  END;
   235                  IF (ANY_OPTION & HIT_CNT > 0) |
   236                     (ALL_OPTION & HIT_CNT = SCAN_TBL_MAX) THEN
   237                  DO;
   238                     IF LAST_MEMBER = PDSGET_MEMBER THEN;
   239                     ELSE
   240                     DO;
   241                        LAST_MEMBER = PDSGET_MEMBER;
   242                        PUT SKIP EDIT('MEMBER ',LAST_MEMBER)
   243                                                (A,A);
   244                     END;
   245                     PUT SKIP EDIT(PDSGET_RECORD80) (X(5),A);
   246               END;
   247            END;
   248        END;
   249
   250        IF PDSGET_RETURN_CODE = 4 THEN
   251         /* PUT SKIP LIST('END OF FILE ON MEMBER (RC=4)') */;
   252        ELSE
   253            IF PDSGET_RETURN_CODE = 8 THEN
   254            DO;
   255                PUT SKIP LIST(
   256                          'READ FAILED (RC=8); EXECUTION TERMINATED');
   257                STOP;
   258            END;
   259    END P500_READ_MEMBER;
   260   -P600_CLOSE_PDS:PROC;
   261        PDSGET_REQUEST = PDSGET_REQUEST_CLOSE;
   262        CALL P900_CALL_GETPDSP;
   263        IF PDSGET_RETURN_CODE = 4 THEN
   264            PUT SKIP LIST('CLOSE FAILED (RC=4)');
   265        ELSE
   266        IF PDSGET_RETURN_CODE = 8 THEN
   267        DO;
   268            PUT SKIP LIST('CLOSE FAILED (RC=8); EXECUTION TERMINATED');
   269            STOP;
           /********************** PDSCANR V1.1.1 *******************************/                          PAGE      8


   MACRO SOURCE2 LISTING

   270        END;
   271    END P600_CLOSE_PDS;
   272   -P900_CALL_GETPDSP:PROC;
   273        CALL GETPDSP (PDSGET_REQUEST_1,
   274                      PDSGET_MEMBER_1,
   275                      PDSGET_RECORD80_1,
   276                      PDSGET_RETURN_CODE_1);
   277    END P900_CALL_GETPDSP;
   278
   279    END PDSCANR;


   INCLUDED TEXT FOLLOWS FROM DD.MEMBER =  SYSLIB  .GETPDSPA

   280    /********************** GETPDSPA V1.2.0 ******************************/
   281    /*********************************************************************/
   282    /*                                                                   */
   283    /* NAME: GETPDSPA - PARM LIST DEFINITIONS FOR GETPDS V1.3.0          */
   284    /*                                                                   */
   285    /* NOTE: THERE IS A COBOL VERSION OF THIS.  THEY SHOULD BE KEPT      */
   286    /*       IN SYNC.                                                    */
   287    /*                                                                   */
   288    /*********************************************************************/
   289    /*                                                                   */
   290    /*  (C) COPYRIGHT 2017 EDWARD G LISS   ALL RIGHTS RESERVED           */
   291    /*  (C) COPYRIGHT 2023 EDWARD G LISS   ALL RIGHTS RESERVED           */
   292    /*                                                                   */
   293    /*  THIS SOURCE CODE AS WELL AS ANY OBJECT CODE RESULTING FROM THIS  */
   294    /*  SOURCE CODE MAY BE DISTRIBUTED FREELY PROVIDED NO FEE IS CHARGED */
   295    /*  AND FOR NON-COMERCIAL PURPOSES.                                  */
   296    /*                                                                   */
   297    /*  FOR COMMERCIAL DISTRIBUTION RIGHTS, CONTACT THE COPYRIGHT OWNER. */
   298    /*                                                                   */
   299    /*********************************************************************/
   300    /*                                                                   */
   301    /* REVISION HISTORY                                                  */
   302    /* ------  --------------------------------------------------------  */
   303    /* V1.1.0  INITIAL VERSION.                                          */
   304    /* V1.2.0  ADDED THE DEFINITION OF MEMBERS STATS AND ADDED           */
   305    /*         WORK AREAS FOR STATISTICS CODE CONVERSION.                */
   306    /*                                                                   */
   307    /*********************************************************************/
   308
   309        DECLARE
   310           1  PDSGET_PARAMETERS   STATIC ALIGNED,
           /********************** PDSCANR V1.1.1 *******************************/                          PAGE      9


   MACRO SOURCE2 LISTING

   311               2  PDSGET_REQUEST_OPEN   INITIAL(0)  FIXED BINARY(31),
   312               2  PDSGET_REQUEST_START  INITIAL(1)  FIXED BINARY(31),
   313               2  PDSGET_REQUEST_LOCATE INITIAL(4)  FIXED BINARY(31),
   314               2  PDSGET_REQUEST_NEXT   INITIAL(5)  FIXED BINARY(31),
   315               2  PDSGET_REQUEST_READ   INITIAL(8)  FIXED BINARY(31),
   316               2  PDSGET_REQUEST_CLOSE  INITIAL(12) FIXED BINARY(31);
   317        DECLARE
   318           1   PDSGET_REQUEST_1      STATIC,
   319               2  PDSGET_REQUEST     FIXED BINARY(31),
   320           1   PDSGET_MEMBER_1       STATIC,
   321               2  PDSGET_MEMBER      CHAR(8),     /* DDNAME FOR OPEN */
   322           1   PDSGET_RECORD80_1     STATIC,
   323               2  PDSGET_RECORD80    CHAR(80),
   324           1   PDSGET_RETURN_CODE_1  STATIC,
   325               2  PDSGET_RETURN_CODE FIXED BINARY(31);
   326    /*********************************************************************/
   327    /*                                                                   */
   328    /* PDSGET_RETURN_CODE DEFINITIONS                                    */
   329    /*       RETURN_CODE 0 = SUCCESSFUL COMPLETION OF REQUEST            */
   330    /*       RETURN_CODE 8 = SERIOUS ERROR.                              */
   331    /*       RETURN_CODE 4 = DEPENDS ON REQUEST CODE                     */
   332    /*            REQUEST_CODE    MEANING                                */
   333    /*                  0         PDS COULD NOT BE OPENED.               */
   334    /*                  1         PDS COULD NOT BE OPENED.               */
   335    /*                  4         MEMBER NOT FOUND.                      */
   336    /*                  5         END OF DIRECTORY.                      */
   337    /*                  8         END OF CURRENT MEMBER.                 */
   338    /*                                                                   */
   339    /*********************************************************************/
   340        DECLARE
   341           PDSGET_PTR   POINTER,
   342           1  PDSGET_STATISTICS          BASED(PDSGET_PTR),
   343              2  PDS_C                      CHAR(1),
   344              2  PDS_VERSION                CHAR(1),
   345              2  PDS_MOD                    CHAR(1),
   346              2  PDS_NULL                   CHAR(2),
   347              2  PDS_DATE_CREATED           FIXED DECIMAL(7,0),
   348              2  PDS_DATE_UPDATED           FIXED DECIMAL(7,0),
   349              2  PDS_TIME_CHANGED_H         CHAR(1),
   350              2  PDS_TIME_CHANGED_M         CHAR(1),
   351              2  PDS_CURRENT_LINES          FIXED BINARY(15),
   352              2  PDS_INITIAL_LINES          FIXED BINARY(15),
   353              2  PDS_CHANGED_LINES          FIXED BINARY(15),
   354              2  PDS_USER_ID                CHAR(8);
   355
           /********************** PDSCANR V1.1.1 *******************************/                          PAGE     10


   MACRO SOURCE2 LISTING

   356         /*****************************************************************
   357          *                                                               *
   358          *   PDS-TIME-CHANGED -H AND -M ARE UNSIGNED PACKED DECIMALS     *
   359          *   THEY MUST TO CONVERTED TO SIGNED PACK DECIMAL TO USE THEM.  *
   360          *   THE PDS_TIME_CONVERSION FUNCTION CAN BE USED FOR THAT.      *
   361          *                                                               *
   362          *   THIS CONVERSION MUST TAKE PLACE FOR BOTH THE -H AND =M      *
   363          *   PDS-TIME-CHANGED- FIELDS.                                   *
   364          *                                                               *
   365          ****************************************************************/
   366        DECLARE PDS_TIME_CONVERSION ENTRY RETURNS(CHAR(2));
   367    PDS_TIME_CONVERSION:PROC(A_BYTE) RETURNS(CHAR(2));
   368        DECLARE A_BYTE             CHAR(1);
   369        DECLARE
   370              PDS_FILLER1_PTR      POINTER,
   371              PDS_FILLER4_PTR      POINTER,
   372
   373              PDS_TIME_WORK        FIXED DECIMAL(5,0) INITIAL(0),
   374
   375           1  PDS_FILLER1                  BASED(PDS_FILLER1_PTR),
   376                   10  FILLER2             CHAR(1),
   377                   10  PDS_TIME_CHAR       CHAR(1),
   378                   10  FILLER3             CHAR(1),
   379           1  PDS_4_DIGIT_TIME             PIC '(4)9',
   380           1  FILLER4                      BASED(PDS_FILLER4_PTR),
   381                   10  FILLER5             CHAR(1),
   382                   10  PDS_TIME            CHAR(2),
   383                   10  FILLER6             CHAR(1);
   384
   385        PDS_FILLER1_PTR = ADDR(PDS_TIME_WORK);
   386        PDS_FILLER4_PTR = ADDR(PDS_4_DIGIT_TIME);
   387
   388        PDS_TIME_WORK = 0;
   389        PDS_TIME_CHAR = A_BYTE;
   390        PDS_4_DIGIT_TIME = PDS_TIME_WORK;
   391        RETURN(PDS_TIME);
   392    END PDS_TIME_CONVERSION;
   393    /********************** GETPDSPA V1.2.0  END *************************/


   NO ERROR OR WARNING CONDITION HAS BEEN DETECTED FOR THIS MACRO PASS.
           /********************** PDSCANR V1.1.1 *******************************/                          PAGE     11


                    SOURCE LISTING.


                     /********************** PDSCANR V1.1.1 *******************************/    1
                     /*********************************************************************/    2
                     /*                                                                   */    3
                     /* NAME: PDSCANR - SCAN A PDS FOR GIVEN STRINGS.                     */    4
                     /*                                                                   */    5
                     /*********************************************************************/    6
                     /*                                                                   */    7
                     /*  (C) COPYRIGHT 2023  EDWARD G LISS      ALL RIGHTS RESERVED       */    8
                     /*                                                                   */    9
                     /*  THIS SOURCE CODE AS WELL AS ANY OBJECT CODE RESULTING FROM THIS  */   10
                     /*  SOURCE CODE MAY BE DISTRIBUTED FREELY PROVIDED NO FEE IS CHARGED */   11
                     /*  AND FOR NON-COMERCIAL PURPOSES.                                  */   12
                     /*                                                                   */   13
                     /*  FOR COMMERCIAL DISTRIBUTION RIGHTS, CONTACT THE COPYRIGHT OWNER. */   14
                     /*                                                                   */   15
                     /*********************************************************************/   16
                     /*                                                                   */   17
                     /*   THIS PROGRAM READS ALL THE MEMBERS OF A PDS AND SCANS EACH      */   18
                     /*   EACH RECORD FOR GIVEN STRINGS.  THE STRINGS ARE ENTERED VIA     */   19
                     /*   THE SYSIN DD.  EACH STRING CAN BE UP TO 8 CHARACTERS AND MUST   */   20
                     /*   BE ENCLOSED IN QUOTES (I.E. 'STRING').  STRINGS ARE SEPERATED   */   21
                     /*   BY COMMAS.  NO SEQUENCE NUMBERS IN 73-80.                       */   22
                     /*                                                                   */   23
                     /*   THE PDS TO SCAN IS POINTED TO BY DDNAME PDSIN.                  */   24
                     /*                                                                   */   25
                     /*   AN EXEC PARM CAN BE GIVEN - THE DEFAULT OF ANY WILL PRINT       */   26
                     /*   WHEN IT MATCHES ANY OF THE SEARCH STRINGS.  A PARM OF 'ALL'     */   27
                     /*   WILL PRINT WHEN ALL THE STRINGS ARE FOUND IN A RECORD.          */   28
                     /*                                                                   */   29
                     /* REVISION HISTORY                                                  */   30
                     /* ------  --------------------------------------------------------  */   31
                     /* V1.0.0  NEW PROGRAM.  OCTOBER, 2012                               */   32
                     /*                                                                   */   33
                     /* V1.1.0  BUG FIX.  07/22/2020                                      */   34
                     /*         PROBLEM:  FIRST RECORD OF EACH MEMBER WAS BEING SKIPPED.  */   35
                     /*         BUG IN GETPDSP DID NOT RETURN 1ST RECORD ON 1ST CALL.     */   36
                     /*                                                                   */   37
                     /* V1.1.1  CLEAN UP. 03/31/2023                                      */   38
                     /*         MODIFIED TO USE INCLUDES FOR PDSGET_PARAMETERS.           */   39
                     /*         NO FUNCTIONAL CHANGES.                                    */   40
                     /*                                                                   */   41
                     /*********************************************************************/   42
                                                                                               43
           /********************** PDSCANR V1.1.1 *******************************/                          PAGE     12


     1               PDSCANR:PROCEDURE(EXEC_PARM) OPTIONS(MAIN);                               44
                                                                                               45
     2                   DECLARE EXEC_PARM            CHAR(100) VARYING;                       46
     3                   DECLARE LAST_MEMBER          CHAR(8) INITIAL((8)' ');                 47
     4                   DECLARE PAGE_CTR             INITIAL(0)    FIXED DECIMAL(5,0);        48
     5                   DECLARE (ANY_OPTION,       INITIAL('0'B),                             49
                                  ALL_OPTION        INITIAL('0'B))  BIT(1) ALIGNED;            50
     6                   DECLARE                                                               51
                            1  WS_MEMBER_COUNT       FIXED BINARY(31) ALIGNED INITIAL(0);      52
                                                                                               53
                     /********************** GETPDSPA V1.2.0 ******************************/  280
                     /*********************************************************************/  281
                     /*                                                                   */  282
                     /* NAME: GETPDSPA - PARM LIST DEFINITIONS FOR GETPDS V1.3.0          */  283
                     /*                                                                   */  284
                     /* NOTE: THERE IS A COBOL VERSION OF THIS.  THEY SHOULD BE KEPT      */  285
                     /*       IN SYNC.                                                    */  286
                     /*                                                                   */  287
                     /*********************************************************************/  288
                     /*                                                                   */  289
                     /*  (C) COPYRIGHT 2017 EDWARD G LISS   ALL RIGHTS RESERVED           */  290
                     /*  (C) COPYRIGHT 2023 EDWARD G LISS   ALL RIGHTS RESERVED           */  291
                     /*                                                                   */  292
                     /*  THIS SOURCE CODE AS WELL AS ANY OBJECT CODE RESULTING FROM THIS  */  293
                     /*  SOURCE CODE MAY BE DISTRIBUTED FREELY PROVIDED NO FEE IS CHARGED */  294
                     /*  AND FOR NON-COMERCIAL PURPOSES.                                  */  295
                     /*                                                                   */  296
                     /*  FOR COMMERCIAL DISTRIBUTION RIGHTS, CONTACT THE COPYRIGHT OWNER. */  297
                     /*                                                                   */  298
                     /*********************************************************************/  299
                     /*                                                                   */  300
                     /* REVISION HISTORY                                                  */  301
                     /* ------  --------------------------------------------------------  */  302
                     /* V1.1.0  INITIAL VERSION.                                          */  303
                     /* V1.2.0  ADDED THE DEFINITION OF MEMBERS STATS AND ADDED           */  304
                     /*         WORK AREAS FOR STATISTICS CODE CONVERSION.                */  305
                     /*                                                                   */  306
                     /*********************************************************************/  307
                                                                                              308
     7                   DECLARE                                                              309
                            1  PDSGET_PARAMETERS   STATIC ALIGNED,                            310
                                2  PDSGET_REQUEST_OPEN   INITIAL(0)  FIXED BINARY(31),        311
                                2  PDSGET_REQUEST_START  INITIAL(1)  FIXED BINARY(31),        312
                                2  PDSGET_REQUEST_LOCATE INITIAL(4)  FIXED BINARY(31),        313
                                2  PDSGET_REQUEST_NEXT   INITIAL(5)  FIXED BINARY(31),        314
                                2  PDSGET_REQUEST_READ   INITIAL(8)  FIXED BINARY(31),        315
                                2  PDSGET_REQUEST_CLOSE  INITIAL(12) FIXED BINARY(31);        316
           /********************** PDSCANR V1.1.1 *******************************/                          PAGE     13


     8                   DECLARE                                                              317
                            1   PDSGET_REQUEST_1      STATIC,                                 318
                                2  PDSGET_REQUEST     FIXED BINARY(31),                       319
                            1   PDSGET_MEMBER_1       STATIC,                                 320
                                2  PDSGET_MEMBER      CHAR(8),     /* DDNAME FOR OPEN */      321
                            1   PDSGET_RECORD80_1     STATIC,                                 322
                                2  PDSGET_RECORD80    CHAR(80),                               323
                            1   PDSGET_RETURN_CODE_1  STATIC,                                 324
                                2  PDSGET_RETURN_CODE FIXED BINARY(31);                       325
                     /*********************************************************************/  326
                     /*                                                                   */  327
                     /* PDSGET_RETURN_CODE DEFINITIONS                                    */  328
                     /*       RETURN_CODE 0 = SUCCESSFUL COMPLETION OF REQUEST            */  329
                     /*       RETURN_CODE 8 = SERIOUS ERROR.                              */  330
                     /*       RETURN_CODE 4 = DEPENDS ON REQUEST CODE                     */  331
                     /*            REQUEST_CODE    MEANING                                */  332
                     /*                  0         PDS COULD NOT BE OPENED.               */  333
                     /*                  1         PDS COULD NOT BE OPENED.               */  334
                     /*                  4         MEMBER NOT FOUND.                      */  335
                     /*                  5         END OF DIRECTORY.                      */  336
                     /*                  8         END OF CURRENT MEMBER.                 */  337
                     /*                                                                   */  338
                     /*********************************************************************/  339
     9                   DECLARE                                                              340
                            PDSGET_PTR   POINTER,                                             341
                            1  PDSGET_STATISTICS          BASED(PDSGET_PTR),                  342
                               2  PDS_C                      CHAR(1),                         343
                               2  PDS_VERSION                CHAR(1),                         344
                               2  PDS_MOD                    CHAR(1),                         345
                               2  PDS_NULL                   CHAR(2),                         346
                               2  PDS_DATE_CREATED           FIXED DECIMAL(7,0),              347
                               2  PDS_DATE_UPDATED           FIXED DECIMAL(7,0),              348
                               2  PDS_TIME_CHANGED_H         CHAR(1),                         349
                               2  PDS_TIME_CHANGED_M         CHAR(1),                         350
                               2  PDS_CURRENT_LINES          FIXED BINARY(15),                351
                               2  PDS_INITIAL_LINES          FIXED BINARY(15),                352
                               2  PDS_CHANGED_LINES          FIXED BINARY(15),                353
                               2  PDS_USER_ID                CHAR(8);                         354
                                                                                              355
                          /*****************************************************************  356
                           *                                                               *  356
                           *   PDS-TIME-CHANGED -H AND -M ARE UNSIGNED PACKED DECIMALS     *  356
                           *   THEY MUST TO CONVERTED TO SIGNED PACK DECIMAL TO USE THEM.  *  356
                           *   THE PDS_TIME_CONVERSION FUNCTION CAN BE USED FOR THAT.      *  356
                           *                                                               *  356
                           *   THIS CONVERSION MUST TAKE PLACE FOR BOTH THE -H AND =M      *  356
                           *   PDS-TIME-CHANGED- FIELDS.                                   *  356
           /********************** PDSCANR V1.1.1 *******************************/                          PAGE     14


                           *                                                               *  356
                           ****************************************************************/  356
                                                                                              365
    10                   DECLARE PDS_TIME_CONVERSION ENTRY RETURNS(CHAR(2));                  366
    11               PDS_TIME_CONVERSION:PROC(A_BYTE) RETURNS(CHAR(2));                       367
    12                   DECLARE A_BYTE             CHAR(1);                                  368
    13                   DECLARE                                                              369
                               PDS_FILLER1_PTR      POINTER,                                  370
                               PDS_FILLER4_PTR      POINTER,                                  371
                                                                                              372
                               PDS_TIME_WORK        FIXED DECIMAL(5,0) INITIAL(0),            373
                                                                                              374
                            1  PDS_FILLER1                  BASED(PDS_FILLER1_PTR),           375
                                    10  FILLER2             CHAR(1),                          376
                                    10  PDS_TIME_CHAR       CHAR(1),                          377
                                    10  FILLER3             CHAR(1),                          378
                            1  PDS_4_DIGIT_TIME             PIC '(4)9',                       379
                            1  FILLER4                      BASED(PDS_FILLER4_PTR),           380
                                    10  FILLER5             CHAR(1),                          381
                                    10  PDS_TIME            CHAR(2),                          382
                                    10  FILLER6             CHAR(1);                          383
                                                                                              384
    14                   PDS_FILLER1_PTR = ADDR(PDS_TIME_WORK);                               385
    15                   PDS_FILLER4_PTR = ADDR(PDS_4_DIGIT_TIME);                            386
                                                                                              387
    16                   PDS_TIME_WORK = 0;                                                   388
    17                   PDS_TIME_CHAR = A_BYTE;                                              389
    18                   PDS_4_DIGIT_TIME = PDS_TIME_WORK;                                    390
    19                   RETURN(PDS_TIME);                                                    391
    20               END PDS_TIME_CONVERSION;                                                 392
                     /********************** GETPDSPA V1.2.0  END *************************/  393
                                                                                               55
    21                   DECLARE                                                               56
                            1   SCAN_STRS,                                                     57
                                2  SCAN_TBL_MAX       FIXED BINARY(15,0) INITIAL(0),           58
                                2  SCAN_TBL(20),                                               59
                                   3  SCAN_STR        CHAR(8) VARYING,                         60
                                   3  SCAN_CTR        FIXED DECIMAL(7,0);                      61
                                                                                               62
    22                   SCAN_STR(*)='';                                                       63
    23                   SCAN_CTR(*)=0;                                                        64
    24                   ON ENDPAGE(SYSPRINT)                                                  65
    25                   BEGIN;                                                                66
    26                      IF PAGE_CTR > 0 THEN PUT PAGE;                                     67
    28                      PAGE_CTR=PAGE_CTR+1;                                               68
    29                      PUT EDIT('PDSCANR V1.1.1','PAGE ',PAGE_CTR)                        69
                                         (A,COL(110),A,F(5));                                  70
           /********************** PDSCANR V1.1.1 *******************************/                          PAGE     15


    30                      PUT SKIP(2);                                                       71
    31                      IF LAST_MEMBER = (8)' ' THEN;                                      72
    33                      ELSE                                                               73
    33                      DO;                                                                74
    34                          PUT SKIP EDIT('MEMBER ',LAST_MEMBER,' (CONTINUED)')            75
                                   (A,A,A);                                                    76
    35                          PUT SKIP(2);                                                   77
    36                      END;                                                               78
    37                   END;                                                                  79
    38                   SIGNAL ENDPAGE(SYSPRINT);                                             80
    39                   CALL P000_LOAD_STR;                                                   81
    40                   CALL P100_OPEN_PDS;                                                   82
    41                   CALL P600_CLOSE_PDS;                                                  83
                                                                                               84
    42                   PUT SKIP EDIT('MEMBER PROCESSED=',WS_MEMBER_COUNT)(A,F(10));          85
    43                   DO I=1 TO SCAN_TBL_MAX;                                               86
    44                      PUT SKIP LIST(SCAN_STR(I),'FOUND',SCAN_CTR(I));                    87
    45                   END;                                                                  88
    46                   PUT SKIP LIST('PDSCANR CONCLUDED');                                   89
                                                                                               90
    47               P000_LOAD_STR:PROC;                                                       91
    48                   DECLARE WORK_STR  CHAR(8) VARYING;                                    92
    49                   DECLARE E_O_F     BIT(1)  ALIGNED INITIAL('0'B);                      93
    50                   DECLARE I         FIXED BINARY ALIGNED;                               94
    51                   IF LENGTH(EXEC_PARM) = 0 THEN                                         95
    52                   DO;                                                                   96
    53                      PUT SKIP EDIT('NO EXEC PARM FOUND.  DEFAULTING TO ''ANY''')        97
                                (A);                                                           98
    54                      ANY_OPTION='1'B;                                                   99
    55                   END;                                                                 100
    56                   ELSE                                                                 101
    56                   IF LENGTH(EXEC_PARM)=3 THEN                                          102
    57                   DO;                                                                  103
    58                      PUT SKIP EDIT('PARM=''',EXEC_PARM,'''') (A,A,A);                  104
    59                      IF EXEC_PARM = 'ANY' THEN ANY_OPTION='1'B;                        105
    61                      ELSE                                                              106
    61                         IF EXEC_PARM = 'ALL' THEN ALL_OPTION='1'B;                     107
    63                         ELSE                                                           108
    63                            PUT SKIP LIST('INVALID PARM');                              109
    64                   END;                                                                 110
    65                   ELSE                                                                 111
    65                      PUT SKIP LIST('INVALID PARM');                                    112
    66                   PUT SKIP;                                                            113
    67                   ON ENDFILE(SYSIN)  E_O_F = '1'B;                                     114
    69                   DO WHILE (E_O_F = '0'B);                                             115
    70                      GET LIST(WORK_STR);                                               116
    71                      IF E_O_F = '0'B THEN                                              117
           /********************** PDSCANR V1.1.1 *******************************/                          PAGE     16


    72                      DO;                                                               118
    73                         IF LENGTH(WORK_STR)=0 THEN                                     119
    74                         DO;                                                            120
    75                            PUT SKIP LIST('NULL SEARCH STRING IGNORED');                121
    76                         END;                                                           122
    77                         ELSE                                                           123
    77                         DO;                                                            124
    78                            SCAN_TBL_MAX=SCAN_TBL_MAX+1;                                125
    79                            SCAN_STR(SCAN_TBL_MAX)=WORK_STR;                            126
    80                         END;                                                           127
    81                      END;                                                              128
    82                   END;                                                                 129
    83                   IF SCAN_TBL_MAX=0 THEN                                               130
    84                   DO;                                                                  131
    85                       PUT SKIP LIST('NO STRINGS TO SCAN FOR');                         132
    86                       STOP;                                                            133
    87                   END;                                                                 134
    88                   PUT SKIP LIST('THE FOLLOWING STRINGS WILL BE SEARCHED FOR');         135
    89                   PUT SKIP(2) LIST(' ','STRING');                                      136
    90                   DO I=1 TO SCAN_TBL_MAX;                                              137
    91                      PUT SKIP LIST(I,SCAN_STR(I));                                     138
    92                   END;                                                                 139
    93               END P000_LOAD_STR;                                                       140
    94               P100_OPEN_PDS:PROC;                                                      141
    95                   PDSGET_REQUEST = PDSGET_REQUEST_OPEN;                                142
    96                   PDSGET_MEMBER  = 'PDSIN   ';                                         143
    97                   CALL P900_CALL_GETPDSP;                                              144
    98                   IF PDSGET_RETURN_CODE = 0 THEN                                       145
    99                       CALL P200_START_DIR;                                             146
   100                   ELSE                                                                 147
   100                   IF PDSGET_RETURN_CODE = 4 THEN                                       148
   101                       PUT SKIP LIST('OPEN FAILED (RC=4)');                             149
   102                   ELSE                                                                 150
   102                   IF PDSGET_RETURN_CODE = 8 THEN                                       151
   103                   DO;                                                                  152
   104                       PUT SKIP LIST('OPEN FAILED (RC=8); EXECUTION TERMINATED');       153
   105                       STOP;                                                            154
   106                   END;                                                                 155
   107               END P100_OPEN_PDS;                                                       156
   108               P200_START_DIR:PROC;                                                     157
   109                   PDSGET_REQUEST = PDSGET_REQUEST_START;                               158
   110                   CALL P900_CALL_GETPDSP;                                              159
   111                   IF PDSGET_RETURN_CODE = 0 THEN                                       160
   112                       CALL P300_NEXT_DIR;                                              161
   113                   ELSE                                                                 162
   113                   IF PDSGET_RETURN_CODE = 4 THEN                                       163
   114                       PUT SKIP LIST('START FAILED (RC=4)');                            164
           /********************** PDSCANR V1.1.1 *******************************/                          PAGE     17


   115                   ELSE                                                                 165
   115                   IF PDSGET_RETURN_CODE = 8 THEN                                       166
   116                   DO;                                                                  167
   117                       PUT SKIP LIST('START FAILED (RC=8); EXECUTION TERMINATED');      168
   118                       STOP;                                                            169
   119                   END;                                                                 170
   120               END P200_START_DIR;                                                      171
   121               P300_NEXT_DIR:PROC;                                                      172
   122                   PDSGET_RETURN_CODE = 0;                                              173
   123                   DO WHILE(PDSGET_RETURN_CODE = 0);                                    174
   124                       PDSGET_REQUEST = PDSGET_REQUEST_NEXT;                            175
   125                       CALL P900_CALL_GETPDSP;                                          176
   126                       IF PDSGET_RETURN_CODE = 0 THEN                                   177
   127                       DO;                                                              178
   128                           CALL P400_LOCATE_MEMBER;                                     179
   129                           PDSGET_RETURN_CODE = 0;                                      180
   130                       END;                                                             181
   131                       ELSE                                                             182
   131                       IF PDSGET_RETURN_CODE = 4 THEN                                   183
   132                           PUT SKIP LIST('END OF DIRECTORY (RC=4)');                    184
   133                       ELSE                                                             185
   133                       IF PDSGET_RETURN_CODE = 8 THEN                                   186
   134                       DO;                                                              187
   135                           PUT SKIP LIST(                                               188
                                              'NEXT FAILED (RC=8); EXECUTION TERMINATED');    189
   136                           STOP;                                                        190
   137                       END;                                                             191
   138                   END; /* DO UNTIL */                                                  192
   139               END P300_NEXT_DIR;                                                       193
   140               P400_LOCATE_MEMBER:PROC;                                                 194
   141                   PDSGET_REQUEST = PDSGET_REQUEST_LOCATE;                              195
   142                   CALL P900_CALL_GETPDSP;                                              196
   143                   IF PDSGET_RETURN_CODE = 0 THEN                                       197
   144                   DO;                                                                  198
                          /* PUT SKIP LIST('MEMBER NAME=',PDSGET_MEMBER); */                  199
   145                       CALL P500_READ_MEMBER;                                           200
   146                   END;                                                                 201
   147                   ELSE                                                                 202
   147                   IF PDSGET_RETURN_CODE = 4 THEN                                       203
   148                       PUT SKIP LIST('MEMBER NOT FOUND (RC=4)');                        204
   149                   ELSE                                                                 205
   149                       IF PDSGET_RETURN_CODE = 8 THEN                                   206
   150                       DO;                                                              207
   151                           PUT SKIP LIST(                                               208
                                           'LOCATE FAILED (RC=8); EXECUTION TERMINATED');     209
   152                           STOP;                                                        210
   153                       END;                                                             211
           /********************** PDSCANR V1.1.1 *******************************/                          PAGE     18


   154               END P400_LOCATE_MEMBER;                                                  212
   155               P500_READ_MEMBER:PROC;                                                   213
   156                   DECLARE I          FIXED BINARY ALIGNED,                             214
                                 HIT_CNT    FIXED DECIMAL(7,0);                               215
   157                   PDSGET_REQUEST = PDSGET_REQUEST_READ;                                216
                     /************************************ V1.1.0 FIX START **************    217
                         CALL P900_CALL_GETPDSP;                                              217
                     ************************************* V1.1.0 FIX END   *************/    217
                                                                                              219
   158                   WS_MEMBER_COUNT=WS_MEMBER_COUNT+1;                                   220
   159                   IF PDSGET_RETURN_CODE = 0 THEN                                       221
   160                   DO;                                                                  222
   161                       DO WHILE (PDSGET_RETURN_CODE = 0);                               223
   162                          CALL P900_CALL_GETPDSP;                                       224
   163                          IF PDSGET_RETURN_CODE = 0 THEN                                225
   164                          DO;                                                           226
   165                             HIT_CNT=0;                                                 227
   166                             DO I=1 TO SCAN_TBL_MAX;                                    228
   167                                IF INDEX(PDSGET_RECORD80,SCAN_STR(I))> 0 THEN           229
   168                                DO;                                                     230
   169                                   HIT_CNT=HIT_CNT+1;                                   231
   170                                   SCAN_CTR(I)=SCAN_CTR(I)+1;                           232
   171                                END;                                                    233
   172                             END;                                                       234
   173                             IF (ANY_OPTION & HIT_CNT > 0) |                            235
                                      (ALL_OPTION & HIT_CNT = SCAN_TBL_MAX) THEN              236
   174                             DO;                                                        237
   175                                IF LAST_MEMBER = PDSGET_MEMBER THEN;                    238
   177                                ELSE                                                    239
   177                                DO;                                                     240
   178                                   LAST_MEMBER = PDSGET_MEMBER;                         241
   179                                   PUT SKIP EDIT('MEMBER ',LAST_MEMBER)                 242
                                                                 (A,A);                       243
   180                                END;                                                    244
   181                                PUT SKIP EDIT(PDSGET_RECORD80) (X(5),A);                245
   182                          END;                                                          246
   183                       END;                                                             247
   184                   END;                                                                 248
                                                                                              249
   185                   IF PDSGET_RETURN_CODE = 4 THEN                                       250
   186                    /* PUT SKIP LIST('END OF FILE ON MEMBER (RC=4)') */;                251
   187                   ELSE                                                                 252
   187                       IF PDSGET_RETURN_CODE = 8 THEN                                   253
   188                       DO;                                                              254
   189                           PUT SKIP LIST(                                               255
                                           'READ FAILED (RC=8); EXECUTION TERMINATED');       256
   190                           STOP;                                                        257
           /********************** PDSCANR V1.1.1 *******************************/                          PAGE     19


   191                       END;                                                             258
   192               END P500_READ_MEMBER;                                                    259
   194               P600_CLOSE_PDS:PROC;                                                     260
   195                   PDSGET_REQUEST = PDSGET_REQUEST_CLOSE;                               261
   196                   CALL P900_CALL_GETPDSP;                                              262
   197                   IF PDSGET_RETURN_CODE = 4 THEN                                       263
   198                       PUT SKIP LIST('CLOSE FAILED (RC=4)');                            264
   199                   ELSE                                                                 265
   199                   IF PDSGET_RETURN_CODE = 8 THEN                                       266
   200                   DO;                                                                  267
   201                       PUT SKIP LIST('CLOSE FAILED (RC=8); EXECUTION TERMINATED');      268
   202                       STOP;                                                            269
   203                   END;                                                                 270
   204               END P600_CLOSE_PDS;                                                      271
   205               P900_CALL_GETPDSP:PROC;                                                  272
   206                   CALL GETPDSP (PDSGET_REQUEST_1,                                      273
                                       PDSGET_MEMBER_1,                                       274
                                       PDSGET_RECORD80_1,                                     275
                                       PDSGET_RETURN_CODE_1);                                 276
   207               END P900_CALL_GETPDSP;                                                   277
                                                                                              278
   208               END PDSCANR;                                                             279
           /********************** PDSCANR V1.1.1 *******************************/                          PAGE     20


          STORAGE REQUIREMENTS.
          ----------------------

          THE STORAGE AREA FOR THE PROCEDURE LABELLED PDSCANR IS 772 BYTES LONG.

          THE STORAGE AREA (IN STATIC) FOR THE PROCEDURE LABELLED PDS_TIME_CONVERSION IS 264 BYTES LONG.

          THE STORAGE AREA FOR THE ON UNIT AT STATEMENT NO. 25 IS 260 BYTES LONG.

          THE STORAGE AREA (IN STATIC) FOR THE PROCEDURE LABELLED P000_LOAD_STR IS 292 BYTES LONG.

          THE STORAGE AREA FOR THE ON UNIT AT STATEMENT NO. 67 IS 256 BYTES LONG.

          THE STORAGE AREA (IN STATIC) FOR THE PROCEDURE LABELLED P100_OPEN_PDS IS 248 BYTES LONG.

          THE STORAGE AREA (IN STATIC) FOR THE PROCEDURE LABELLED P200_START_DIR IS 248 BYTES LONG.

          THE STORAGE AREA (IN STATIC) FOR THE PROCEDURE LABELLED P300_NEXT_DIR IS 248 BYTES LONG.

          THE STORAGE AREA (IN STATIC) FOR THE PROCEDURE LABELLED P400_LOCATE_MEMBER IS 248 BYTES LONG.

          THE STORAGE AREA (IN STATIC) FOR THE PROCEDURE LABELLED P500_READ_MEMBER IS 288 BYTES LONG.

          THE STORAGE AREA (IN STATIC) FOR THE PROCEDURE LABELLED P600_CLOSE_PDS IS 248 BYTES LONG.

          THE STORAGE AREA (IN STATIC) FOR THE PROCEDURE LABELLED P900_CALL_GETPDSP IS 248 BYTES LONG.

          THE PROGRAM CSECT IS NAMED PDSCANR  AND IS 4110 BYTES LONG.

          THE STATIC  CSECT IS NAMED PDSCANRA AND IS 4304 BYTES LONG.


*STATISTICS*     MACRO RECORDS =      393,SOURCE RECORDS =      394,PROG TEXT STMNTS =      208,OBJECT BYTES =     4110
           /********************** PDSCANR V1.1.1 *******************************/                          PAGE     21


TABLE OF OFFSETS AND STATEMENT NUMBERS WITHIN PROCEDURE          PDS_TIME_CONVERSION

OFFSET (HEX)  0000 005C 0064 006C 0072 0084 008E 00A6
STATEMENT NO    11   14   15   16   17   18   19   20


TABLE OF OFFSETS AND STATEMENT NUMBERS WITHIN ON UNIT

OFFSET (HEX)  0000 0048 0056 0066 0070 00DC 00EC 00FA 00FE 00FE 0154 0164 0164
STATEMENT NO    25   26   27   28   29   30   31   32   33   34   35   36   37


TABLE OF OFFSETS AND STATEMENT NUMBERS WITHIN ON UNIT

OFFSET (HEX)  0000 0048 0052
STATEMENT NO    68   68


TABLE OF OFFSETS AND STATEMENT NUMBERS WITHIN PROCEDURE          P000_LOAD_STR

OFFSET (HEX)  0000 0064 0078 0078 00A6 00B0 00B4 00C8 00C8 0122 0146 0154 0178 0186 01A4 01A8 01C6 01D6 01E4 01FA 0218
STATEMENT NO    47   51   52   53   54   55   56   57   58   59   60   61   62   63   64   65   66   67   69   70   71

OFFSET (HEX)  022E 022E 023A 023A 0258 025C 025C 026C 02A0 02A0 02A0 02A4 02B4 02B4 02D2 02D8 02D8 02F6 0310 0324 0360
STATEMENT NO    72   73   74   75   76   77   78   79   80   81   82   83   84   85   86   87   88   89   90   91   92

OFFSET (HEX)  0374
STATEMENT NO    93


TABLE OF OFFSETS AND STATEMENT NUMBERS WITHIN PROCEDURE          P100_OPEN_PDS

OFFSET (HEX)  0000 003C 0042 0048 0052 005E 006C 0078 009A 00A6 00A6 00C4 00CA 00CA
STATEMENT NO    94   95   96   97   98   99  100  101  102  103  104  105  106  107


TABLE OF OFFSETS AND STATEMENT NUMBERS WITHIN PROCEDURE          P200_START_DIR

OFFSET (HEX)  0000 003C 0042 004C 0058 0066 0072 0094 00A0 00A0 00BE 00C4 00C4
STATEMENT NO   108  109  110  111  112  113  114  115  116  117  118  119  120


TABLE OF OFFSETS AND STATEMENT NUMBERS WITHIN PROCEDURE          P300_NEXT_DIR

OFFSET (HEX)  0000 003C 0042 004E 0054 005E 006A 006A 0074 007A 007E 008A 00AC 00B8 00B8 00D6 00DC 00DC 00E0
STATEMENT NO   121  122  123  124  125  126  127  128  129  130  131  132  133  134  135  136  137  138  139
           /********************** PDSCANR V1.1.1 *******************************/                          PAGE     22


TABLE OF OFFSETS AND STATEMENT NUMBERS WITHIN PROCEDURE          P400_LOCATE_MEMBER

OFFSET (HEX)  0000 0040 0046 0050 005C 005C 0066 006A 0076 0098 00A4 00A4 00C2 00C8 00C8
STATEMENT NO   140  141  142  143  144  145  146  147  148  149  150  151  152  153  154


TABLE OF OFFSETS AND STATEMENT NUMBERS WITHIN PROCEDURE          P500_READ_MEMBER

OFFSET (HEX)  0000 004C 0052 0062 006E 006E 007A 0084 0090 0090 0096 00AA 00E8 00E8 00EE 0118 0118 012C 0194 0194 019E
STATEMENT NO   155  157  158  159  160  161  162  163  164  165  166  167  168  169  170  171  172  173  174  175  176

OFFSET (HEX)  01A2 01A2 01AC 01F0 01F0 0230 0230 0230 0234 0240 0244 0250 0250 026E 0274 0274 0274
STATEMENT NO   177  178  179  180  181  182  183  184  185  186  187  188  189  190  191  192  193


TABLE OF OFFSETS AND STATEMENT NUMBERS WITHIN PROCEDURE          P600_CLOSE_PDS

OFFSET (HEX)  0000 003C 0042 004C 0058 007A 0086 0086 00A4 00AA 00AA
STATEMENT NO   194  195  196  197  198  199  200  201  202  203  204


TABLE OF OFFSETS AND STATEMENT NUMBERS WITHIN PROCEDURE          P900_CALL_GETPDSP

OFFSET (HEX)  0000 0040 004A
STATEMENT NO   205  206  207


TABLE OF OFFSETS AND STATEMENT NUMBERS WITHIN PROCEDURE          PDSCANR

OFFSET (HEX)  0000 015C 018A 01B8 01C6 01DC 01E6 01F0 01FA 023E 024E 029C 02B0 02CE
STATEMENT NO     1   22   23   24   38   39   40   41   42   43   44   45   46  208
           /********************** PDSCANR V1.1.1 *******************************/                          PAGE     23


    COMPILER DIAGNOSTICS.


 WARNINGS.


    IEM0227I          NO FILE/STRING OPTION SPECIFIED IN ONE OR MORE GET/PUT STATEMENTS. SYSIN/SYSPRINT HAS BEEN


                      ASSUMED IN EACH CASE.


    IEM0764I          ONE OR MORE FIXED BINARY ITEMS OF PRECISION 15 OR LESS HAVE BEEN GIVEN HALFWORD STORAGE. THEY


                      ARE FLAGGED '*********' IN THE XREF/ATR LIST.


 END OF DIAGNOSTICS.


AUXILIARY STORAGE WILL NOT BE USED FOR DICTIONARY WHEN SIZE = 120K


COMPILE TIME         .00 MINS

ELAPSED TIME         .01 MINS

 F64-LEVEL LINKAGE EDITOR OPTIONS SPECIFIED XREF,LIST
          DEFAULT OPTION(S) USED -  SIZE=(231424,55296)
****PDSCANR   DOES NOT EXIST BUT HAS BEEN ADDED TO DATA SET
AUTHORIZATION CODE IS         0.


                                                CROSS REFERENCE TABLE


  CONTROL SECTION                       ENTRY

    NAME    ORIGIN  LENGTH                NAME   LOCATION     NAME   LOCATION     NAME   LOCATION     NAME   LOCATION
  PDSCANR       00    100E
  PDSCANRA    1010    10D0
  IHEMAIN     20E0       4
  IHENTRY     20E8       C
  IHESPRT     20F8      38
  SYSIN       2130      38
  IHEDOA  *   2168     23A
                                        IHEDOAA     2168    IHEDOAB     216A
  IHEDBN  *   23A8     167
                                        IHEDBNA     23A8
  IHEDCN  *   2510     256
                                        IHEDCNA     2510    IHEDCNB     2512
  IHEDMA  *   2768      F8
                                        IHEDMAA     2768
  IHEDNC  *   2860     2B2
                                        IHEDNCA     2860
  IHEIOD  *   2B18     29A
                                        IHEIODG     2B18    IHEIODP     2B1A    IHEIODT     2C12
  IHEVQC  *   2DB8     268
                                        IHEVQCA     2DB8
  IHEERR  *   3020     745
                                        IHEERRD     3020    IHEERRC     302A    IHEERRB     3034    IHEERRA     303E
                                        IHEERRE     36CE
  IHEUPA  *   3768      E8
                                        IHEUPAA     3768    IHEUPAB     37D2
  IHEUPB  *   3850      E4
                                        IHEUPBA     3850    IHEUPBB     38B8
  IHEVFA  *   3938     16C
                                        IHEVFAA     3938
  IHEVFB  *   3AA8      F0
                                        IHEVFBA     3AA8
  IHEVFC  *   3B98      26
                                        IHEVFCA     3B98
  IHEVFD  *   3BC0      66
                                        IHEVFDA     3BC0
  IHEVFE  *   3C28      20
                                        IHEVFEA     3C28
  IHEVKB  *   3C48     30A
                                        IHEVKBA     3C48
  IHEVKC  *   3F58     2D0
                                        IHEVKCA     3F58
  IHEVKF  *   4228     67C


    NAME    ORIGIN  LENGTH                NAME   LOCATION     NAME   LOCATION     NAME   LOCATION     NAME   LOCATION
                                        IHEVKFA     4228
  IHEVKG  *   48A8     4DE
                                        IHEVKGA     48A8
  IHEVPA  *   4D88     1E0
                                        IHEVPAA     4D88
  IHEVPB  *   4F68     1A2
                                        IHEVPBA     4F68
  IHEVPC  *   5110     1F0
                                        IHEVPCA     5110
  IHEVPD  *   5300     105
                                        IHEVPDA     5300
  IHEVPE  *   5408     278
                                        IHEVPEA     5408
  IHEVPF  *   5680      50
                                        IHEVPFA     5680
  IHEVPG  *   56D0     229
                                        IHEVPGA     56D0
  IHEVPH  *   5900      B4
                                        IHEVPHA     5900
  IHEABN  *   59B8       C
                                        IHEABND     59B8
  IHEM91  *   59C8     178
                                        IHEM91B     59C8    IHEM91A     59D0    IHEM91C     5AE2
  IHETER  *   5B40     110
                                        IHETERA     5B40
  IHEVQB  *   5C50     4DC
                                        IHEVQBA     5C50
  IHEVQA  *   6130      FC
                                        IHEVQAA     6130
  IHEVSB  *   6230      CE
                                        IHEVSBA     6230
  IHEVSC  *   6300      AC
                                        IHEVSCA     6300
  IHEVSE  *   63B0     15D
                                        IHEVSEA     63B0    IHEVSEB     63B2
  IHEVSF  *   6510      EC
                                        IHEVSFA     6510
  IHEIOF  *   6600     2DC
                                        IHEIOFB     6600    IHEIOFA     6602    IHEITAZ     689E    IHEITAX     68AA
                                        IHEITAA     68BE
  IHEDOB  *   68E0     144
                                        IHEDOBA     68E0    IHEDOBB     68E2    IHEDOBC     68E4
  IHEIOX  *   6A28     14C
                                        IHEIOXA     6A28    IHEIOXB     6A2A    IHEIOXC     6A2E
  IHELDI  *   6B78     878
                                        IHELDIA     6B78    IHELDIB     6B7A    IHELDIC     6B7C    IHELDID     6B7E
  IHEDNB  *   73F0     112
                                        IHEDNBA     73F0
  IHEKCD  *   7508     110
                                        IHEKCDA     7508    IHEKCDB     750A
  IHEVCA  *   7618     112
                                        IHEVCAA     7618


    NAME    ORIGIN  LENGTH                NAME   LOCATION     NAME   LOCATION     NAME   LOCATION     NAME   LOCATION
  IHEVCS  *   7730     1DC
                                        IHEVCSA     7730    IHEVCSB     7732
  IHEVSD  *   7910     1A0
                                        IHEVSDA     7910    IHEVSDB     7912
  IHEVSA  *   7AB0     13E
                                        IHEVSAA     7AB0
  IHELDO  *   7BF0     418
                                        IHELDOA     7BF0    IHELDOB     7BF2    IHELDOC     7BF6
  IHESAP  *   8008     B1C
                                        IHESADA     8008    IHESAPC     8022    IHESAPD     802A    IHESAPA     8032
                                        IHESAPB     803A    IHESADF     8042    IHESADB     804A    IHESADE     8052
                                        IHESAFC     805A    IHESAFA     8062    IHESAFB     806A    IHESAFD     8072
                                        IHESARA     807A    IHESAFQ     8082    IHESARC     8874    IHESADD     8988
                                        IHESAFF     89C2
  IHEBEG  *   8B28      80
                                        IHEBEGN     8B28    IHEBEGA     8B68
  IHEDDO  *   8BA8     288
                                        IHEDDOA     8BA8    IHEDDOB     8BAA    IHEDDOC     8BAC    IHEDDOD     8BAE
                                        IHEDDOE     8BB0
  IHEOCL  *   8E30     580
                                        IHEOCLA     8E30    IHEOCLB     8E32    IHEOCLC     8E34    IHEOCLD     8E36
  IHEPRT  *   93B0     308
                                        IHEPRTA     93B0    IHEPRTB     93B2
  IHESIZ  *   96B8       C
                                        IHESIZE     96B8
  IHETAB  *   96C8       C
                                        IHETABS     96C8
  IHEDDP  *   96D8     28C
                                        IHEDDPA     96D8    IHEDDPB     96DA    IHEDDPC     96DC    IHEDDPD     96DE
  GETPDS  *   9968     604
                                        NCZ93205    9968    GETPDSP     9970
  @GETDIR *   9F70     214
  IHECSC  *   A188      C6
                                        IHECSC0     A188
  IHEIOA  *   A250     16A
                                        IHEIOAA     A250    IHEIOAB     A252    IHEIOAC     A254    IHEIOAD     A256
                                        IHEIOAT     A340
  IHEIOP  *   A3C0     1F7
                                        IHEIOPA     A3C0    IHEIOPB     A3C2    IHEIOPC     A3C6
  IHEIOB  *   A5B8     1E0
                                        IHEIOBA     A5B8    IHEIOBB     A5C0    IHEIOBC     A5C8    IHEIOBD     A5D0
                                        IHEIOBE     A5D8    IHEIOBT     A6C0
  IHEOSS  *   A798      34
                                        IHEOSSA     A798
  IHESTR  *   A7D0     66C
                                        IHESTRA     A7D0    IHESTRB     A7D2    IHESTRC     A7D6
  IHECSI  *   AE40      A2
                                        IHECSI0     AE40



  LOCATION  REFERS TO SYMBOL  IN CONTROL SECTION             LOCATION  REFERS TO SYMBOL  IN CONTROL SECTION
       10            PDSCANRA        PDSCANRA                     39C            PDSCANRA        PDSCANRA
      884            PDSCANRA        PDSCANRA                    15AC            IHESPRT         IHESPRT
     15B0            PDSCANR         PDSCANR                     15B8            IHESPRT         IHESPRT
     15BC            PDSCANR         PDSCANR                     15C4            IHESPRT         IHESPRT
     15C8            PDSCANR         PDSCANR                     15D0            IHESPRT         IHESPRT
     15D4            PDSCANR         PDSCANR                     15DC            IHESPRT         IHESPRT
     15E0            PDSCANR         PDSCANR                     15E8            IHESPRT         IHESPRT
     15EC            PDSCANR         PDSCANR                     15F4            IHESPRT         IHESPRT
     15F8            PDSCANR         PDSCANR                     1600            IHESPRT         IHESPRT
     1604            PDSCANR         PDSCANR                     160C            IHESPRT         IHESPRT
     1610            PDSCANR         PDSCANR                     1618            IHESPRT         IHESPRT
     161C            PDSCANR         PDSCANR                     1624            IHESPRT         IHESPRT
     1628            PDSCANR         PDSCANR                     1630            IHESPRT         IHESPRT
     1634            PDSCANR         PDSCANR                     163C            IHESPRT         IHESPRT
     1640            PDSCANR         PDSCANR                     1648            IHESPRT         IHESPRT
     164C            PDSCANR         PDSCANR                     1654            IHESPRT         IHESPRT
     1658            PDSCANR         PDSCANR                     1660            IHESPRT         IHESPRT
     1664            PDSCANR         PDSCANR                     166C            IHESPRT         IHESPRT
     1670            PDSCANR         PDSCANR                     1678            IHESPRT         IHESPRT
     167C            PDSCANR         PDSCANR                     1684            SYSIN           SYSIN
     1689            PDSCANR         PDSCANR                     168C            IHESPRT         IHESPRT
     1690            PDSCANR         PDSCANR                     1698            IHESPRT         IHESPRT
     169C            PDSCANR         PDSCANR                     16A4            IHESPRT         IHESPRT
     16A8            PDSCANR         PDSCANR                     16B0            IHESPRT         IHESPRT
     16B4            PDSCANR         PDSCANR                     16BC            IHESPRT         IHESPRT
     16C0            PDSCANR         PDSCANR                     16C8            IHESPRT         IHESPRT
     16CC            PDSCANR         PDSCANR                     16D4            IHESPRT         IHESPRT
     16D8            PDSCANR         PDSCANR                     16E0            IHESPRT         IHESPRT
     16E4            PDSCANR         PDSCANR                     16EC            IHESPRT         IHESPRT
     16F0            PDSCANR         PDSCANR                     16F8            IHESPRT         IHESPRT
     1030            IHESADA         IHESAP                      1034            IHESADB         IHESAP
     1038            PDSCANR         PDSCANR                     103C            PDSCANR         PDSCANR
     1098            PDSCANR         PDSCANR                     109C            PDSCANR         PDSCANR
     10A0            PDSCANR         PDSCANR                     10A4            PDSCANR         PDSCANR
     10A8            PDSCANR         PDSCANR                     10AC            PDSCANR         PDSCANR
     10B0            PDSCANR         PDSCANR                     10B4            PDSCANR         PDSCANR
     10B8            PDSCANR         PDSCANR                     10BC            PDSCANR         PDSCANR
     10C0            PDSCANR         PDSCANR                     10C4            PDSCANR         PDSCANR
     10C8            IHELDOA         IHELDO                      10CC            IHELDIB         IHELDI
     10D0            IHELDOB         IHELDO                      10D4            IHEIOXC         IHEIOX
     10D8            IHEIOXC         IHEIOX                      10DC            IHEIOXB         IHEIOX
     10E0            IHEIOXB         IHEIOX                      10E4            IHEDOBB         IHEDOB
     10E8            IHEDOBB         IHEDOB                      10EC            IHEDOAA         IHEDOA
     10F0            IHEDOAA         IHEDOA                      10F4            IHEIOAT         IHEIOA
     10F8            IHEIOAA         IHEIOA                      10FC            IHEIOBC         IHEIOB
     1100            IHEIOBA         IHEIOB                      1104            IHEIOBT         IHEIOB
     1108            IHEIOBB         IHEIOB                      110C            IHEOSSA         IHEOSS
     1110            IHEERRB         IHEERR                      1040            IHESAFA         IHESAP
     1114            IHESAFB         IHESAP                      1118            IHECSC0         IHECSC
     111C            IHESTRB         IHESTR                      1120            GETPDSP         GETPDS
     1124            IHECSI0         IHECSI                      1128            IHESPRT         IHESPRT
     112C            SYSIN           SYSIN                       16FC            PDSCANR         PDSCANR


  LOCATION  REFERS TO SYMBOL  IN CONTROL SECTION             LOCATION  REFERS TO SYMBOL  IN CONTROL SECTION
     1704            IHESPRT         IHESPRT                     1708            PDSCANR         PDSCANR
     1710            IHESPRT         IHESPRT                     1715            PDSCANR         PDSCANR
     1718            IHESPRT         IHESPRT                     171D            PDSCANR         PDSCANR
     20E0            PDSCANR         PDSCANR                     20F0            IHESAPC         IHESAP
     2388            IHEIODP         IHEIOD                      238C            IHEIODT         IHEIOD
     2390            IHEDMAA         IHEDMA                      2394            IHEDCNA         IHEDCN
     2398            IHEDBNA         IHEDBN                      239C            IHEVQCA         IHEVQC
     24F8            IHEDMAA         IHEDMA                      24FC            IHEUPBB         IHEUPB
     2500            IHEUPAB         IHEUPA                      2504            IHEERRB         IHEERR
     272C            IHEDMAA         IHEDMA                      2730            IHEVQBA         IHEVQB
     2734            IHEERRB         IHEERR                      2738            IHEUPAB         IHEUPA
     273C            IHEUPBB         IHEUPB                      2740            IHEUPAA         IHEUPA
     2744            IHEUPBA         IHEUPB                      27D4            IHEVFBA         IHEVFB
     27D8            IHEVFCA         IHEVFC                      27E0            IHEVFAA         IHEVFA
     27E4            IHEVPAA         IHEVPA                      27E8            IHEVKGA         IHEVKG
     27EC            IHEVPDA         IHEVPD                      27F0            IHEVKFA         IHEVKF
     27F4            IHEVPBA         IHEVPB                      27F8            IHEVPCA         IHEVPC
     2824            IHEVFDA         IHEVFD                      2828            IHEVFEA         IHEVFE
     2830            IHEVPHA         IHEVPH                      2834            IHEVPGA         IHEVPG
     2838            IHEVKCA         IHEVKC                      283C            IHEVPFA         IHEVPF
     2840            IHEVKBA         IHEVKB                      2844            IHEVPEA         IHEVPE
     2AF4            IHEDMAA         IHEDMA                      2AF8            IHEUPAB         IHEUPA
     2AFC            IHEVSCA         IHEVSC                      2B00            IHEVSEB         IHEVSE
     2B04            IHEVQCA         IHEVQC                      2DA0            IHEIOFA         IHEIOF
     2DA4            IHEERRB         IHEERR                      2DA8            IHEERRC         IHEERR
     2F08            IHEVSEB         IHEVSE                      2F8C            IHEERRC         IHEERR
     2FA8            IHEERRB         IHEERR                      2FFC            IHEVSCA         IHEVSC
     3714            IHEM91A         IHEM91                      3718            IHEM91B         IHEM91
     371C            IHEM91C         IHEM91                      3720            IHEABND         IHEABN
     3744            IHETERA         IHETER                      392C            IHEDMAA         IHEDMA
     3B80            IHEERRB         IHEERR                      489C            IHEERRB         IHEERR
     4D74            IHEERRB         IHEERR                      4F64            IHEERRB         IHEERR
     50E8            IHEERRC         IHEERR                      50F8            IHEERRB         IHEERR
     52E8            IHEERRC         IHEERR                      52EC            IHEERRB         IHEERR
     53F8            IHEERRB         IHEERR                      5668            IHEERRB         IHEERR
     58EC            IHEERRB         IHEERR                      59B0            IHEERRB         IHEERR
     5B28            IHEERRC         IHEERR                      6060            IHEERRB         IHEERR
     6064            IHEVQAA         IHEVQA                      6214            IHEERRB         IHEERR
     6500            IHEERRB         IHEERR                      6504            IHEERRC         IHEERR
     65F4            IHEERRC         IHEERR                      68CC            IHEERRB         IHEERR
     68D0            IHEERRC         IHEERR                      6A04            IHEERRC         IHEERR
     6A08            IHEIODP         IHEIOD                      6A0C            IHEIODT         IHEIOD
     6A10            IHEDNCA         IHEDNC                      6A14            IHEVSCA         IHEVSC
     6A18            IHEVSEA         IHEVSE                      6A1C            IHEVSBA         IHEVSB
     6A20            IHEVSFA         IHEVSF                      6B5C            IHEERRB         IHEERR
     6B60            IHEERRC         IHEERR                      6B64            IHEIODG         IHEIOD
     6B68            IHEIODP         IHEIOD                      6B6C            IHEIODT         IHEIOD
     6B70            IHEIOFA         IHEIOF                      73B8            IHEUPAB         IHEUPA
     73BC            IHEUPBB         IHEUPB                      73C0            IHEVCAA         IHEVCA
     73C4            IHEDCNB         IHEDCN                      73C8            IHEVSCA         IHEVSC
     73CC            IHEVSDB         IHEVSD                      73D0            IHEDNCA         IHEDNC
     73D4            IHEDNBA         IHEDNB                      73D8            IHEIOFA         IHEIOF


  LOCATION  REFERS TO SYMBOL  IN CONTROL SECTION             LOCATION  REFERS TO SYMBOL  IN CONTROL SECTION
     73DC            IHEVCSA         IHEVCS                      73E0            IHEDMAA         IHEDMA
     73E4            IHEERRB         IHEERR                      73E8            IHEKCDB         IHEKCD
     73EC            IHEERRC         IHEERR                      74EC            IHEDMAA         IHEDMA
     74F0            IHEVSAA         IHEVSA                      7610            IHEERRB         IHEERR
     78FC            IHEDMAA         IHEDMA                      7900            IHEUPAB         IHEUPA
     7904            IHEDNCA         IHEDNC                      7908            IHEDNBA         IHEDNB
     7AA4            IHEERRB         IHEERR                      7FF4            IHEERRC         IHEERR
     7FF8            IHEIOFA         IHEIOF                      7FFC            IHEVSBA         IHEVSB
     8000            IHEVSCA         IHEVSC                      8004            IHEDNCA         IHEDNC
     8A24            IHEMAIN         IHEMAIN                     8A44            IHEOCLD         IHEOCL
     8A48            IHESIZE         IHESIZ                      8A4C            IHEBEGA         IHEBEG
     8AD0            IHEITAX         IHEIOF                      8AD4            IHEERRB         IHEERR
     8AD8            IHEERRC         IHEERR                      8ADC            IHETABS         IHETAB
     8AE0            IHEITAZ         IHEIOF                      8275            IHEERRA         IHEERR
     8B14            IHEPRTA         IHEPRT                      8B18            IHEPRTB         IHEPRT
     8B1C            IHEDDOD         IHEDDO                      8B20            IHEOCLC         IHEOCL
     8E10            IHEIOFA         IHEIOF                      8E14            IHELDOC         IHELDO
     8E18            IHEPRTB         IHEPRT                      8E1C            IHEDDPA         IHEDDP
     8E20            IHEDDPB         IHEDDP                      8E24            IHEDDPC         IHEDDP
     8E28            IHEDDPD         IHEDDP                      9390            IHEIOFA         IHEIOF
     9398            IHEERRB         IHEERR                      939C            IHEERRC         IHEERR
     9684            IHEOCLA         IHEOCL                      9688            IHEIOFA         IHEIOF
     968C            IHESPRT         IHESPRT                     9F48            @GETDIR         @GETDIR
     9F50            @GETDIR         @GETDIR                     A3AC            IHEERRC         IHEERR
     A3B0            IHEERRB         IHEERR                      A3B4            IHEIOPB         IHEIOP
     A59C            IHEIOFA         IHEIOF                      A5A0            IHEERRB         IHEERR
     A5A4            IHEERRC         IHEERR                      A76C            IHEIOPA         IHEIOP
     A770            IHEIOPB         IHEIOP                      A774            IHEIOPC         IHEIOP
     A778            IHEIOPA         IHEIOP                      A77C            IHEOCLC         IHEOCL
     A790            IHEERRB         IHEERR                      A794            IHEERRC         IHEERR
     A7C4            IHEERRB         IHEERR                      A7C8            IHESAFQ         IHESAP
     AE38            IHEERRC         IHEERR
  LOCATION   5C4C REQUESTS CUMULATIVE PSEUDO REGISTER LENGTH

 PSEUDO REGISTERS


    NAME    ORIGIN  LENGTH        NAME    ORIGIN  LENGTH        NAME    ORIGIN  LENGTH        NAME    ORIGIN  LENGTH
  IHEQINV       00       4      IHEQERR        4       4      IHEQTIC        8       4      IHEQLWF        C       4
  IHEQSLA       10       4      IHEQLW0       14       4      PDSCANRB      18       4      PDSCANRC      1C       4
  PDSCANRD      20       4      PDSCANRE      24       4      PDSCANRF      28       4      PDSCANRG      2C       4
  PDSCANRH      30       4      PDSCANRI      34       4      PDSCANRJ      38       4      PDSCANRK      3C       4
  PDSCANRL      40       4      PDSCANRM      44       4      IHEQSPR       48       4      SYSIN         4C       4
  IHEQLSA       50       4      IHEQLW1       54       4      IHEQLW2       58       4      IHEQLW3       5C       4
  IHEQLW4       60       4      IHEQLWE       64       4      IHEQLCA       68       4      IHEQVDA       6C       4
  IHEQFVD       70       4      IHEQFOP       74       4      IHEQCFL       78       8      IHEQADC       80       4
  IHEQLPR       84       4      IHEQSAR       88       4      IHEQRTC       8C       4      IHEQSFC       90       4

  IHEQXLV       94       8      IHEQEVT       9C       8
 TOTAL LENGTH OF PSEUDO REGISTERS      A4
 ENTRY ADDRESS     20E8



 TOTAL LENGTH      AEE8
                         IIIIIIIIII   NN        NN   SSSSSSSSSS   TTTTTTTTTTTT   AAAAAAAAAA   LL            LL
                        IIIIIIIIII   NNN       NN  SSSSSSSSSSSS  TTTTTTTTTTTT  AAAAAAAAAAAA  LL            LL
                           II       NNNN      NN  SS        SS       TT       AA        AA  LL            LL
                          II       NN NN     NN  SS                 TT       AA        AA  LL            LL
                         II       NN  NN    NN  SSS                TT       AA        AA  LL            LL
                        II       NN   NN   NN   SSSSSSSSS         TT       AAAAAAAAAAAA  LL            LL
                       II       NN    NN  NN    SSSSSSSSS        TT       AAAAAAAAAAAA  LL            LL
                      II       NN     NN NN           SSS       TT       AA        AA  LL            LL
                     II       NN      NNNN            SS       TT       AA        AA  LL            LL
                    II       NN       NNN  SS        SS       TT       AA        AA  LL            LL
               IIIIIIIIII   NN        NN  SSSSSSSSSSSS       TT       AA        AA  LLLLLLLLLLLL  LLLLLLLLLLLL
              IIIIIIIIII   NN         N   SSSSSSSSSS        TT       AA        AA  LLLLLLLLLLLL  LLLLLLLLLLLL


                    JJJJJJJJJJ        444     555555555555        444     555555555555                 AAAAAAAAAA
                    JJJJJJJJJJ       4444     555555555555       4444     555555555555                AAAAAAAAAAAA
                        JJ          44 44     55                44 44     55                          AA        AA
                        JJ         44  44     55               44  44     55                          AA        AA
                        JJ        44   44     55              44   44     55                          AA        AA
                        JJ       44444444444  555555555      44444444444  555555555                   AAAAAAAAAAAA
                        JJ      444444444444  5555555555    444444444444  5555555555                  AAAAAAAAAAAA
                        JJ             44              55          44              55                 AA        AA
                  JJ    JJ             44               55         44               55                AA        AA
                  JJ    JJ             44               55         44               55                AA        AA
                  JJJJJJJJ             44     555555555555         44     555555555555                AA        AA
                   JJJJJJ              44     55555555555          44     55555555555                 AA        AA


****A   END   JOB 4545  INSTALL   PDSUTIL               ROOM        8.54.46 AM 06 APR 23  PRINTER1  SYS TK4-  JOB 4545   END   A****
****A   END   JOB 4545  INSTALL   PDSUTIL               ROOM        8.54.46 AM 06 APR 23  PRINTER1  SYS TK4-  JOB 4545   END   A****
****A   END   JOB 4545  INSTALL   PDSUTIL               ROOM        8.54.46 AM 06 APR 23  PRINTER1  SYS TK4-  JOB 4545   END   A****
****A   END   JOB 4545  INSTALL   PDSUTIL               ROOM        8.54.46 AM 06 APR 23  PRINTER1  SYS TK4-  JOB 4545   END   A****
